{"abi":[{"type":"constructor","inputs":[{"name":"_registry","type":"address","internalType":"address"},{"name":"_betVerifier","type":"address","internalType":"address"}],"stateMutability":"nonpayable"},{"type":"function","name":"betVerifier","inputs":[],"outputs":[{"name":"","type":"address","internalType":"address"}],"stateMutability":"view"},{"type":"function","name":"createMarket","inputs":[{"name":"question","type":"string","internalType":"string"},{"name":"category","type":"string","internalType":"string"},{"name":"resolutionTime","type":"uint256","internalType":"uint256"},{"name":"minBet","type":"uint256","internalType":"uint256"},{"name":"maxBet","type":"uint256","internalType":"uint256"},{"name":"committee","type":"address[]","internalType":"address[]"}],"outputs":[{"name":"","type":"address","internalType":"address"}],"stateMutability":"nonpayable"},{"type":"function","name":"getAllMarkets","inputs":[],"outputs":[{"name":"","type":"address[]","internalType":"address[]"}],"stateMutability":"view"},{"type":"function","name":"getMarket","inputs":[{"name":"marketId","type":"uint256","internalType":"uint256"}],"outputs":[{"name":"","type":"address","internalType":"address"}],"stateMutability":"view"},{"type":"function","name":"marketCount","inputs":[],"outputs":[{"name":"","type":"uint256","internalType":"uint256"}],"stateMutability":"view"},{"type":"function","name":"owner","inputs":[],"outputs":[{"name":"","type":"address","internalType":"address"}],"stateMutability":"view"},{"type":"function","name":"registry","inputs":[],"outputs":[{"name":"","type":"address","internalType":"address"}],"stateMutability":"view"},{"type":"function","name":"renounceOwnership","inputs":[],"outputs":[],"stateMutability":"nonpayable"},{"type":"function","name":"transferOwnership","inputs":[{"name":"newOwner","type":"address","internalType":"address"}],"outputs":[],"stateMutability":"nonpayable"},{"type":"event","name":"MarketCreated","inputs":[{"name":"marketId","type":"uint256","indexed":true,"internalType":"uint256"},{"name":"marketContract","type":"address","indexed":true,"internalType":"address"},{"name":"question","type":"string","indexed":false,"internalType":"string"},{"name":"resolutionTime","type":"uint256","indexed":false,"internalType":"uint256"}],"anonymous":false},{"type":"event","name":"MarketCreatedExtended","inputs":[{"name":"marketId","type":"uint256","indexed":true,"internalType":"uint256"},{"name":"marketContract","type":"address","indexed":true,"internalType":"address"},{"name":"question","type":"string","indexed":false,"internalType":"string"},{"name":"category","type":"string","indexed":false,"internalType":"string"},{"name":"resolutionTime","type":"uint256","indexed":false,"internalType":"uint256"}],"anonymous":false},{"type":"event","name":"OwnershipTransferred","inputs":[{"name":"previousOwner","type":"address","indexed":true,"internalType":"address"},{"name":"newOwner","type":"address","indexed":true,"internalType":"address"}],"anonymous":false},{"type":"error","name":"OwnableInvalidOwner","inputs":[{"name":"owner","type":"address","internalType":"address"}]},{"type":"error","name":"OwnableUnauthorizedAccount","inputs":[{"name":"account","type":"address","internalType":"address"}]}],"bytecode":{"object":"0x60c060405234801561000f575f5ffd5b506040516132f33803806132f383398101604081905261002e916100de565b338061005357604051631e4fbdf760e01b81525f600482015260240160405180910390fd5b61005c81610074565b506001600160a01b039182166080521660a05261010f565b5f80546001600160a01b038381166001600160a01b0319831681178455604051919092169283917f8be0079c531659141344cd1fd0a4f28419497f9722a3daafe3b4186f6b6457e09190a35050565b80516001600160a01b03811681146100d9575f5ffd5b919050565b5f5f604083850312156100ef575f5ffd5b6100f8836100c3565b9150610106602084016100c3565b90509250929050565b60805160a0516131b761013c5f395f8181609901526102af01525f818160fa015261028e01526131b75ff3fe608060405234801561000f575f5ffd5b5060043610610090575f3560e01c80638da5cb5b116100635780638da5cb5b1461011c578063b0772d0b1461012c578063eb44fdd314610141578063ec97908214610169578063f2fde38b1461017a575f5ffd5b806316faf66f14610094578063715018a6146100d857806375611faa146100e25780637b103999146100f5575b5f5ffd5b6100bb7f000000000000000000000000000000000000000000000000000000000000000081565b6040516001600160a01b0390911681526020015b60405180910390f35b6100e061018d565b005b6100bb6100f03660046105a5565b6101a0565b6100bb7f000000000000000000000000000000000000000000000000000000000000000081565b5f546001600160a01b03166100bb565b6101346103f1565b6040516100cf9190610690565b6100bb61014f3660046106db565b5f908152600160205260409020546001600160a01b031690565b6002546040519081526020016100cf565b6100e061018836600461070d565b61049b565b6101956104d8565b61019e5f610504565b565b5f4286116101f55760405162461bcd60e51b815260206004820181905260248201527f5265736f6c7574696f6e206d75737420626520696e207468652066757475726560448201526064015b60405180910390fd5b60028210156102555760405162461bcd60e51b815260206004820152602660248201527f436f6d6d6974746565206d7573742068617665206174206c656173742032206d604482015265656d6265727360d01b60648201526084016101ec565b6002546040515f906102769083904290602001918252602082015260400190565b604051602081830303815290604052805190602001207f00000000000000000000000000000000000000000000000000000000000000007f0000000000000000000000000000000000000000000000000000000000000000848f8f8f8f8f8f8f8f8f6040516102e490610553565b6102f99c9b9a99989796959493929190610755565b8190604051809103905ff5905080158015610316573d5f5f3e3d5ffd5b505f83815260016020526040812080546001600160a01b0319166001600160a01b038416179055600280549293509061034e83610807565b9190505550806001600160a01b0316827f03e783e31593f59fda73a59d05e2525d610a533995cce4d4750186c3b6bf80bb8e8e8c6040516103919392919061082b565b60405180910390a3806001600160a01b0316827ece7db098b4018cd760cdafd69997cb8e7dc2e83b925645b141297a81aed4e48e8e8e8e8e6040516103da95949392919061084e565b60405180910390a39b9a5050505050505050505050565b60605f60025467ffffffffffffffff81111561040f5761040f610887565b604051908082528060200260200182016040528015610438578160200160208202803683370190505b5090505f5b600254811015610495575f8181526001602052604090205482516001600160a01b03909116908390839081106104755761047561089b565b6001600160a01b039092166020928302919091019091015260010161043d565b50919050565b6104a36104d8565b6001600160a01b0381166104cc57604051631e4fbdf760e01b81525f60048201526024016101ec565b6104d581610504565b50565b5f546001600160a01b0316331461019e5760405163118cdaa760e01b81523360048201526024016101ec565b5f80546001600160a01b038381166001600160a01b0319831681178455604051919092169283917f8be0079c531659141344cd1fd0a4f28419497f9722a3daafe3b4186f6b6457e09190a35050565b6128d2806108b083390190565b5f5f83601f840112610570575f5ffd5b50813567ffffffffffffffff811115610587575f5ffd5b60208301915083602082850101111561059e575f5ffd5b9250929050565b5f5f5f5f5f5f5f5f5f60c08a8c0312156105bd575f5ffd5b893567ffffffffffffffff8111156105d3575f5ffd5b6105df8c828d01610560565b909a5098505060208a013567ffffffffffffffff8111156105fe575f5ffd5b61060a8c828d01610560565b90985096505060408a0135945060608a0135935060808a0135925060a08a013567ffffffffffffffff81111561063e575f5ffd5b8a01601f81018c1361064e575f5ffd5b803567ffffffffffffffff811115610664575f5ffd5b8c60208260051b8401011115610678575f5ffd5b60208201935080925050509295985092959850929598565b602080825282518282018190525f918401906040840190835b818110156106d05783516001600160a01b03168352602093840193909201916001016106a9565b509095945050505050565b5f602082840312156106eb575f5ffd5b5035919050565b80356001600160a01b0381168114610708575f5ffd5b919050565b5f6020828403121561071d575f5ffd5b610726826106f2565b9392505050565b81835281816020850137505f828201602090810191909152601f909101601f19169091010190565b6001600160a01b038d811682528c166020820152604081018b9052610120606082018190525f906107899083018b8d61072d565b828103608084015261079c818a8c61072d565b60a0840189905260c0840188905260e084018790528381036101008501528481528591506020015f5b858110156107f3576001600160a01b036107de846106f2565b168252602092830192909101906001016107c5565b509f9e505050505050505050505050505050565b5f6001820161082457634e487b7160e01b5f52601160045260245ffd5b5060010190565b604081525f61083e60408301858761072d565b9050826020830152949350505050565b606081525f61086160608301878961072d565b828103602084015261087481868861072d565b9150508260408301529695505050505050565b634e487b7160e01b5f52604160045260245ffd5b634e487b7160e01b5f52603260045260245ffdfe610140604052348015610010575f5ffd5b506040516128d23803806128d283398101604081905261002f91610377565b338061005457604051631e4fbdf760e01b81525f600482015260240160405180910390fd5b61005d816101ca565b506001600160a01b03808a16608052881660a05260c0879052600161008287826104d2565b50600261008f86826104d2565b5060e08490526101008390526101208290525f5b815181101561014c57600d8282815181106100c0576100c061058c565b6020908102919091018101518254600180820185555f9485529284200180546001600160a01b0319166001600160a01b0390921691909117905583519091600e918590859081106101135761011361058c565b6020908102919091018101516001600160a01b031682528101919091526040015f20805460ff19169115159190911790556001016100a3565b50506040805180820182525f815260016020808301918252835180850185528381528101839052825160038190558251600481905560059190915560065583518085019094528284529290920181905251600781905590516008819055600991909155600a5550506016805460ff19169055506105a0945050505050565b5f80546001600160a01b038381166001600160a01b0319831681178455604051919092169283917f8be0079c531659141344cd1fd0a4f28419497f9722a3daafe3b4186f6b6457e09190a35050565b6001600160a01b038116811461022d575f5ffd5b50565b805161023b81610219565b919050565b634e487b7160e01b5f52604160045260245ffd5b604051601f8201601f191681016001600160401b038111828210171561027c5761027c610240565b604052919050565b5f82601f830112610293575f5ffd5b81516001600160401b038111156102ac576102ac610240565b6102bf601f8201601f1916602001610254565b8181528460208386010111156102d3575f5ffd5b8160208501602083015e5f918101602001919091529392505050565b5f82601f8301126102fe575f5ffd5b81516001600160401b0381111561031757610317610240565b8060051b61032760208201610254565b91825260208185018101929081019086841115610342575f5ffd5b6020860192505b8383101561036d57825161035c81610219565b825260209283019290910190610349565b9695505050505050565b5f5f5f5f5f5f5f5f5f6101208a8c031215610390575f5ffd5b6103998a610230565b98506103a760208b01610230565b60408b015160608c015191995097506001600160401b038111156103c9575f5ffd5b6103d58c828d01610284565b60808c015190975090506001600160401b038111156103f2575f5ffd5b6103fe8c828d01610284565b60a08c015160c08d015160e08e01516101008f01519399509197509550935090506001600160401b03811115610432575f5ffd5b61043e8c828d016102ef565b9150509295985092959850929598565b600181811c9082168061046257607f821691505b60208210810361048057634e487b7160e01b5f52602260045260245ffd5b50919050565b601f8211156104cd57805f5260205f20601f840160051c810160208510156104ab5750805b601f840160051c820191505b818110156104ca575f81556001016104b7565b50505b505050565b81516001600160401b038111156104eb576104eb610240565b6104ff816104f9845461044e565b84610486565b6020601f821160018114610531575f831561051a5750848201515b5f19600385901b1c1916600184901b1784556104ca565b5f84815260208120601f198516915b828110156105605787850151825560209485019460019092019101610540565b508482101561057d57868401515f19600387901b60f8161c191681555b50505050600190811b01905550565b634e487b7160e01b5f52603260045260245ffd5b60805160a05160c05160e051610100516101205161229761063b5f395f6103c701525f61054201525f818161065001528181610bea015281816117e3015261187701525f8181610475015281816108c001528181610a8701528181610ef0015281816112e1015281816115c7015281816117710152611c0e01525f81816102ae0152610de401525f81816104e70152610cbe01526122975ff3fe608060405234801561000f575f5ffd5b506004361061023f575f3560e01c806381232e9a11610135578063ce1b6186116100b4578063ef430aa611610079578063ef430aa61461061d578063efced1e414610625578063f2fde38b14610638578063f3e41e901461064b578063fba2edb514610672575f5ffd5b8063ce1b6186146105cf578063cf094497146105e2578063d85a1eec146105ea578063e636d84b146105f3578063ee99af0f14610615575f5ffd5b80639cf4364b116100fa5780639cf4364b14610564578063a3b5afb11461056c578063afe7fcf4146105a1578063b77641ad146105b4578063ca503110146105bc575f5ffd5b806381232e9a146105095780638456cb591461051c57806385af5d35146105245780638da5cb5b1461052d5780639619367d1461053d575f5ffd5b80633ddfe6b1116101c1578063673a2a1f11610186578063673a2a1f1461045a5780636ed71ede146104705780636f1d4ea414610497578063715018a6146104da5780637b103999146104e2575f5ffd5b80633ddfe6b1146103f75780633f4ba83a146104245780633fad9ae01461042c5780634bb278f3146104415780635c975abb14610449575f5ffd5b80632689b85c116102075780632689b85c1461032657806327793f871461033b5780632997e86b1461035a5780632ce92a181461038c5780632e5b2168146103c2575f5ffd5b8063061e494f146102435780630db41a9c1461026c57806316faf66f146102a9578063200d2ed2146102e857806322af00fa14610302575b5f5ffd5b610256610251366004611cfb565b610696565b6040516102639190611d3e565b60405180910390f35b61027f61027a366004611d8a565b61074c565b604080516001600160a01b0390951685526020850193909352918301526060820152608001610263565b6102d07f000000000000000000000000000000000000000000000000000000000000000081565b6040516001600160a01b039091168152602001610263565b6016546102f59060ff1681565b6040516102639190611dbe565b610315610310366004611cfb565b610798565b604051610263959493929190611dd8565b610339610334366004611d8a565b61081c565b005b60165461034d90610100900460ff1681565b6040516102639190611e27565b61037c610368366004611cfb565b600c6020525f908152604090205460ff1681565b6040519015158152602001610263565b6012546013546014546015546103a29392919084565b604080519485526020850193909352918301526060820152608001610263565b6103e97f000000000000000000000000000000000000000000000000000000000000000081565b604051908152602001610263565b61037c610405366004611e56565b601060209081525f928352604080842090915290825290205460ff1681565b610339610910565b610434610922565b6040516102639190611e80565b6103396109ae565b5f54600160a01b900460ff1661037c565b610462610ae8565b604051610263929190611eb5565b6103e97f000000000000000000000000000000000000000000000000000000000000000081565b604080518082018252600354815260045460208083019190915282518084019093526005548352600654908301526104cc9182565b604051610263929190611ed8565b610339610b76565b6102d07f000000000000000000000000000000000000000000000000000000000000000081565b610339610517366004611f1e565b610b87565b610339611334565b6103e960175481565b5f546001600160a01b03166102d0565b6103e97f000000000000000000000000000000000000000000000000000000000000000081565b600d546103e9565b604080518082018252600754815260085460208083019190915282518084019093526009548352600a54908301526104cc9182565b6102d06105af366004611cfb565b611344565b61033961136c565b6103396105ca366004611fac565b611438565b6103396105dd366004611cfb565b611660565b600b546103e9565b6103e960115481565b61037c610601366004611fd5565b600e6020525f908152604090205460ff1681565b61037c6117c0565b61043461180a565b610339610633366004611fee565b611817565b610339610646366004611fd5565b6119e0565b6103e97f000000000000000000000000000000000000000000000000000000000000000081565b60125460135460145460408051938452602084019290925290820152606001610263565b61069e611c89565b600b82815481106106b1576106b1612007565b5f9182526020918290206040805160a081018252600890930290910180546001600160a01b031683526001810154838501528151608080820184526002830154828501908152600384015460608085019190915290835284518086018652600485015481526005850154818901529683019690965292840152600681015460ff16938301939093526007909201549181019190915292915050565b600f602052815f5260405f208181548110610765575f80fd5b5f91825260209091206004909102018054600182015460028301546003909301546001600160a01b039092169450925084565b600b81815481106107a7575f80fd5b5f918252602091829020600890910201805460018201546040805160808101825260028501548183019081526003860154606083015281528151808301909252600485015482526005850154828701529485015260068301546007909301546001600160a01b039092169450929160ff169085565b335f908152600e602052604090205460ff166108535760405162461bcd60e51b815260040161084a9061201b565b60405180910390fd5b5f6011546001610863919061205d565b60408051608080820183528682526020808301879052600b548385018190526060938401869052601289905560138890556014819055601586905560118690558451868152918201899052938101879052918201929092529192507f0000000000000000000000000000000000000000000000000000000000000000917f03811ecf0fadf29e37fd2a312b1dc967205919a634e2cabc99e2a755fcef95a3910160405180910390a2505050565b610918611a1d565b610920611a49565b565b6001805461092f90612070565b80601f016020809104026020016040519081016040528092919081815260200182805461095b90612070565b80156109a65780601f1061097d576101008083540402835291602001916109a6565b820191905f5260205f20905b81548152906001019060200180831161098957829003601f168201915b505050505081565b600160165460ff1660038111156109c7576109c7611daa565b14610a145760405162461bcd60e51b815260206004820152601f60248201527f4e6f7420696e207265736f6c7574696f6e2070656e64696e6720737461746500604482015260640161084a565b601754610a24906201518061205d565b421015610a735760405162461bcd60e51b815260206004820152601760248201527f446973707574652077696e646f77206e6f74206f766572000000000000000000604482015260640161084a565b6016805460ff1916600217908190556040517f0000000000000000000000000000000000000000000000000000000000000000917f661ce16e44a34377fc37c19874f4b1bec6e84b072cf8d318838fe17c20c58e4491610ade9160ff610100909104169042906120a8565b60405180910390a2565b610af0611cba565b610af8611cba565b5050604080516080808201835260035482840190815260045460608085019190915290835283518085018552600554815260065460208281019190915280850191909152845192830185526007548386019081526008549284019290925290825283518085019094526009548452600a548482015281019290925291565b610b7e611a1d565b6109205f611a9d565b610b8f611aec565b5f60165460ff166003811115610ba757610ba7611daa565b14610be85760405162461bcd60e51b81526020600482015260116024820152704d61726b6574206e6f742061637469766560781b604482015260640161084a565b7f00000000000000000000000000000000000000000000000000000000000000004210610c485760405162461bcd60e51b815260206004820152600e60248201526d13585c9ad95d08195e1c1a5c995960921b604482015260640161084a565b8160ff1660011480610c5d57508160ff166002145b610ca95760405162461bcd60e51b815260206004820152601a60248201527f496e76616c696420736964652028313d5945532c20323d4e4f29000000000000604482015260640161084a565b604051630b1fba9160e11b81523360048201527f00000000000000000000000000000000000000000000000000000000000000006001600160a01b03169063163f752290602401602060405180830381865afa158015610d0b573d5f5f3e3d5ffd5b505050506040513d601f19601f82011682018060405250810190610d2f91906120c3565b610d715760405162461bcd60e51b8152602060048201526013602482015272155cd95c881b9bdd081c9959da5cdd195c9959606a1b604482015260640161084a565b60808301355f818152600c602052604090205460ff1615610dcd5760405162461bcd60e51b8152602060048201526016602482015275139d5b1b1a599a595c88185b1c9958591e481d5cd95960521b604482015260640161084a565b6040516334baeab960e01b81526001600160a01b037f000000000000000000000000000000000000000000000000000000000000000016906334baeab990610e1f908a908a908a908a906004016120e2565b602060405180830381865afa158015610e3a573d5f5f3e3d5ffd5b505050506040513d601f19601f82011682018060405250810190610e5e91906120c3565b610e9e5760405162461bcd60e51b815260206004820152601160248201527024b73b30b634b2103132ba10383937b7b360791b604482015260640161084a565b6001600160a01b038435163314610ee95760405162461bcd60e51b815260206004820152600f60248201526e084cae8e8dee440dad2e6dac2e8c6d608b1b604482015260640161084a565b60208401357f000000000000000000000000000000000000000000000000000000000000000014610f515760405162461bcd60e51b815260206004820152601260248201527109ac2e4d6cae840928840dad2e6dac2e8c6d60731b604482015260640161084a565b5f818152600c6020908152604091829020805460ff19166001179055815160a0810183523381524291810191909152600b918101610f9436869003860186612195565b815260ff868116602080840182905260409384018790528554600180820188555f97885296829020865160089092020180546001600160a01b0319166001600160a01b0390921691909117815585820151818801559385015180518051600287015582015160038601558101518051600486015501516005840155606084015160068401805460ff1916919093161790915560809092015160079091015590036111725760408051808201825260035481526004805460208301529151637bb10bcb60e01b815273__$096a1b5e3ce8eaab1d6be3071b5269fbe0$__92637bb10bcb926110859290918791016121d4565b6040805180830381865af415801561109f573d5f5f3e3d5ffd5b505050506040513d601f19601f820116820180604052508101906110c391906121fa565b805160035560209081015160049081556040805180820182526005548152600654938101939093528051637bb10bcb60e01b815273__$096a1b5e3ce8eaab1d6be3071b5269fbe0$__93637bb10bcb9361112393919291880191016121d4565b6040805180830381865af415801561113d573d5f5f3e3d5ffd5b505050506040513d601f19601f8201168201806040525081019061116191906121fa565b8051600555602001516006556112a6565b604080518082018252600754815260085460208201529051637bb10bcb60e01b815273__$096a1b5e3ce8eaab1d6be3071b5269fbe0$__91637bb10bcb916111bf919086906004016121d4565b6040805180830381865af41580156111d9573d5f5f3e3d5ffd5b505050506040513d601f19601f820116820180604052508101906111fd91906121fa565b80516007556020908101516008556040805180820182526009548152600a54928101929092528051637bb10bcb60e01b815273__$096a1b5e3ce8eaab1d6be3071b5269fbe0$__92637bb10bcb9261125b92908701906004016121d4565b6040805180830381865af4158015611275573d5f5f3e3d5ffd5b505050506040513d601f19601f8201168201806040525081019061129991906121fa565b805160095560200151600a555b6040805160ff85168152602080820184905284358284015284013560608083019190915284830135608083015284013560a0820152905133917f0000000000000000000000000000000000000000000000000000000000000000917fe6255d576858a9943b7672823ba783f7343a9d654e1a80e96bebba875c1ebfb89181900360c00190a350505050505050565b61133c611a1d565b610920611b16565b600d8181548110611353575f80fd5b5f918252602090912001546001600160a01b0316905081565b600160165460ff16600381111561138557611385611daa565b146113d25760405162461bcd60e51b815260206004820152601f60248201527f4e6f7420696e207265736f6c7574696f6e2070656e64696e6720737461746500604482015260640161084a565b6017546113e2906201518061205d565b42106114285760405162461bcd60e51b8152602060048201526015602482015274111a5cdc1d5d19481dda5b991bddc818db1bdcd959605a1b604482015260640161084a565b6016805461ffff19166003179055565b335f908152600e602052604090205460ff166114665760405162461bcd60e51b815260040161084a9061201b565b60115483116114b75760405162461bcd60e51b815260206004820152601760248201527f526f756e6420616c726561647920646563727970746564000000000000000000604482015260640161084a565b5f83815260106020908152604080832033845290915290205460ff16156115205760405162461bcd60e51b815260206004820181905260248201527f416c7265616479207375626d697474656420666f72207468697320726f756e64604482015260640161084a565b5f838152601060209081526040808320338085529083528184208054600160ff199091168117909155878552600f84528285208351608081018552838152808601898152818601898152426060840190815284548087018655948a52988890209251600490940290920180546001600160a01b0319166001600160a01b039094169390931783555192820192909255905160028201559351600390940193909355518581527f0000000000000000000000000000000000000000000000000000000000000000917fa8d3ebb8b3d2b5ee74836edf9ca16e0ff9ff9f48a210087b05432e1352d365a4910160405180910390a3600d545f9060039061162590600261222b565b61162f9190612242565b61163a90600161205d565b5f858152600f6020526040902054909150811161165a5761165a84611b58565b50505050565b335f908152600e602052604090205460ff1661168e5760405162461bcd60e51b815260040161084a9061201b565b600260165460ff1660038111156116a7576116a7611daa565b146116ea5760405162461bcd60e51b815260206004820152601360248201527213585c9ad95d081b9bdd081c995cdbdb1d9959606a1b604482015260640161084a565b600b54811061172f5760405162461bcd60e51b8152602060048201526011602482015270092dcecc2d8d2c840c4cae840d2dcc8caf607b1b604482015260640161084a565b5f600b828154811061174357611743612007565b5f918252602091829020600890910201805460078201546040519081529193506001600160a01b03169184917f0000000000000000000000000000000000000000000000000000000000000000917f915d1c7ef5500dffb9b75f3168e02ee6cb9174ba3f38110fdf80493a751e4b5f910160405180910390a45050565b5f8060165460ff1660038111156117d9576117d9611daa565b14801561180557507f000000000000000000000000000000000000000000000000000000000000000042105b905090565b6002805461092f90612070565b335f908152600e602052604090205460ff166118755760405162461bcd60e51b815260206004820152601f60248201527f4f6e6c7920636f6d6d69747465652063616e20706f7374206f7574636f6d6500604482015260640161084a565b7f00000000000000000000000000000000000000000000000000000000000000004210156118dc5760405162461bcd60e51b8152602060048201526014602482015273546f6f206561726c7920746f207265736f6c766560601b604482015260640161084a565b5f60165460ff1660038111156118f4576118f4611daa565b146119415760405162461bcd60e51b815260206004820152601a60248201527f4d61726b6574206e6f7420696e20616374697665207374617465000000000000604482015260640161084a565b8060ff166001148061195657508060ff166002145b6119945760405162461bcd60e51b815260206004820152600f60248201526e496e76616c6964206f7574636f6d6560881b604482015260640161084a565b8060ff1660028111156119a9576119a9611daa565b6016805461ff0019166101008360028111156119c7576119c7611daa565b0217905550506016805460ff1916600117905542601755565b6119e8611a1d565b6001600160a01b038116611a1157604051631e4fbdf760e01b81525f600482015260240161084a565b611a1a81611a9d565b50565b5f546001600160a01b031633146109205760405163118cdaa760e01b815233600482015260240161084a565b611a51611c60565b5f805460ff60a01b191690557f5db9ee0a495bf2e6ff9c91a7834c1ba4fdd244a5e8aa4e537bd38aeae4b073aa335b6040516001600160a01b03909116815260200160405180910390a1565b5f80546001600160a01b038381166001600160a01b0319831681178455604051919092169283917f8be0079c531659141344cd1fd0a4f28419497f9722a3daafe3b4186f6b6457e09190a35050565b5f54600160a01b900460ff16156109205760405163d93c066560e01b815260040160405180910390fd5b611b1e611aec565b5f805460ff60a01b1916600160a01b1790557f62e78cea01bee320cd4e420270b5ea74000d11b0c9f74754ebdbfc544b05a258611a803390565b5f818152600f60205260408120805490919082908290611b7a57611b7a612007565b905f5260205f2090600402016001015490505f825f81548110611b9f57611b9f612007565b5f9182526020918290206004919091020160020154600b54604080516080808201835287825281860185905281830184905260609182018a905260128890556013859055601484905560158a905560118a905582518a81529586018890529185018490528401829052919350917f0000000000000000000000000000000000000000000000000000000000000000917f03811ecf0fadf29e37fd2a312b1dc967205919a634e2cabc99e2a755fcef95a3910160405180910390a25050505050565b5f54600160a01b900460ff1661092057604051638dfc202b60e01b815260040160405180910390fd5b6040805160a0810182525f8082526020820152908101611ca7611cba565b81525f6020820181905260409091015290565b604080516080810182525f91810182815260608201929092529081908152602001611cf660405180604001604052805f81526020015f81525090565b905290565b5f60208284031215611d0b575f5ffd5b5035919050565b611d2782825180518252602090810151910152565b602090810151805160408401520151606090910152565b81516001600160a01b0316815260208083015190820152604080830151610100830191611d6d90840182611d12565b50606083015160ff1660c083015260809092015160e09091015290565b5f5f60408385031215611d9b575f5ffd5b50508035926020909101359150565b634e487b7160e01b5f52602160045260245ffd5b6020810160048310611dd257611dd2611daa565b91905290565b6001600160a01b0386168152602081018590526101008101611dfd6040830186611d12565b60ff9390931660c082015260e001529392505050565b60038110611e2357611e23611daa565b9052565b60208101611e358284611e13565b92915050565b80356001600160a01b0381168114611e51575f5ffd5b919050565b5f5f60408385031215611e67575f5ffd5b82359150611e7760208401611e3b565b90509250929050565b602081525f82518060208401528060208501604085015e5f604082850101526040601f19601f83011684010191505092915050565b6101008101611ec48285611d12565b611ed16080830184611d12565b9392505050565b825181526020808401518183015282516040830152820151606082015260808101611ed1565b8060408101831015611e35575f5ffd5b803560ff81168114611e51575f5ffd5b5f5f5f5f5f5f868803610240811215611f35575f5ffd5b611f3f8989611efe565b965060c0880189811115611f51575f5ffd5b604089019650611f618a82611efe565b9550506101a0880189811115611f75575f5ffd5b61010089019450611f8581611f0e565b93505060806101bf1982011215611f9a575f5ffd5b506101c0870190509295509295509295565b5f5f5f60608486031215611fbe575f5ffd5b505081359360208301359350604090920135919050565b5f60208284031215611fe5575f5ffd5b611ed182611e3b565b5f60208284031215611ffe575f5ffd5b611ed182611f0e565b634e487b7160e01b5f52603260045260245ffd5b6020808252601490820152732737ba1031b7b6b6b4ba3a32b29036b2b6b132b960611b604082015260600190565b634e487b7160e01b5f52601160045260245ffd5b80820180821115611e3557611e35612049565b600181811c9082168061208457607f821691505b6020821081036120a257634e487b7160e01b5f52602260045260245ffd5b50919050565b604081016120b68285611e13565b8260208301529392505050565b5f602082840312156120d3575f5ffd5b81518015158114611ed1575f5ffd5b6101a08101604086833760408201855f5b600281101561211457604082843760409283019291909101906001016120f3565b50505060408460c084013760a08361010084013795945050505050565b6040805190810167ffffffffffffffff8111828210171561216057634e487b7160e01b5f52604160045260245ffd5b60405290565b5f60408284031215612176575f5ffd5b61217e612131565b823581526020928301359281019290925250919050565b5f60808284031280156121a6575f5ffd5b506121af612131565b6121b98484612166565b81526121c88460408501612166565b60208201529392505050565b825181526020808401518183015282356040830152820135606082015260808101611ed1565b5f604082840312801561220b575f5ffd5b50612214612131565b825181526020928301519281019290925250919050565b8082028115828204841417611e3557611e35612049565b5f8261225c57634e487b7160e01b5f52601260045260245ffd5b50049056fea26469706673582212200788f7b88666b6c8062574f6fa6e3528ff9cfb5f6827fd1d7cbf3ef02d49446f64736f6c634300081b0033a2646970667358221220e9491f00c7a5d3a073455de58d9015b57e77e0fef3a0ea2d93a89b386955613464736f6c634300081b0033","linkReferences":{"lib/EncryptedERC/contracts/libraries/BabyJubJub.sol":{"BabyJubJub":[{"start":8324,"length":20},{"start":8480,"length":20},{"start":8637,"length":20},{"start":8792,"length":20}]}}},"methodIdentifiers":{"betVerifier()":"16faf66f","createMarket(string,string,uint256,uint256,uint256,address[])":"75611faa","getAllMarkets()":"b0772d0b","getMarket(uint256)":"eb44fdd3","marketCount()":"ec979082","owner()":"8da5cb5b","registry()":"7b103999","renounceOwnership()":"715018a6","transferOwnership(address)":"f2fde38b"},"id":23}