{"abi":[{"type":"constructor","inputs":[],"stateMutability":"nonpayable"},{"type":"function","name":"adminRegister","inputs":[{"name":"user","type":"address","internalType":"address"},{"name":"publicKeyX","type":"uint256","internalType":"uint256"},{"name":"publicKeyY","type":"uint256","internalType":"uint256"}],"outputs":[],"stateMutability":"nonpayable"},{"type":"function","name":"getUserPublicKey","inputs":[{"name":"user","type":"address","internalType":"address"}],"outputs":[{"name":"","type":"uint256[2]","internalType":"uint256[2]"}],"stateMutability":"view"},{"type":"function","name":"isUserRegistered","inputs":[{"name":"user","type":"address","internalType":"address"}],"outputs":[{"name":"","type":"bool","internalType":"bool"}],"stateMutability":"view"},{"type":"function","name":"owner","inputs":[],"outputs":[{"name":"","type":"address","internalType":"address"}],"stateMutability":"view"},{"type":"function","name":"register","inputs":[{"name":"publicKeyX","type":"uint256","internalType":"uint256"},{"name":"publicKeyY","type":"uint256","internalType":"uint256"}],"outputs":[],"stateMutability":"nonpayable"},{"type":"function","name":"renounceOwnership","inputs":[],"outputs":[],"stateMutability":"nonpayable"},{"type":"function","name":"transferOwnership","inputs":[{"name":"newOwner","type":"address","internalType":"address"}],"outputs":[],"stateMutability":"nonpayable"},{"type":"function","name":"userAt","inputs":[{"name":"index","type":"uint256","internalType":"uint256"}],"outputs":[{"name":"","type":"address","internalType":"address"}],"stateMutability":"view"},{"type":"function","name":"userCount","inputs":[],"outputs":[{"name":"","type":"uint256","internalType":"uint256"}],"stateMutability":"view"},{"type":"event","name":"OwnershipTransferred","inputs":[{"name":"previousOwner","type":"address","indexed":true,"internalType":"address"},{"name":"newOwner","type":"address","indexed":true,"internalType":"address"}],"anonymous":false},{"type":"event","name":"UserRegistered","inputs":[{"name":"user","type":"address","indexed":true,"internalType":"address"},{"name":"publicKeyX","type":"uint256","indexed":false,"internalType":"uint256"},{"name":"publicKeyY","type":"uint256","indexed":false,"internalType":"uint256"}],"anonymous":false},{"type":"event","name":"UserUpdated","inputs":[{"name":"user","type":"address","indexed":true,"internalType":"address"},{"name":"publicKeyX","type":"uint256","indexed":false,"internalType":"uint256"},{"name":"publicKeyY","type":"uint256","indexed":false,"internalType":"uint256"}],"anonymous":false},{"type":"error","name":"OwnableInvalidOwner","inputs":[{"name":"owner","type":"address","internalType":"address"}]},{"type":"error","name":"OwnableUnauthorizedAccount","inputs":[{"name":"account","type":"address","internalType":"address"}]}],"bytecode":{"object":"0x6080604052348015600e575f5ffd5b503380603357604051631e4fbdf760e01b81525f600482015260240160405180910390fd5b603a81603f565b50608e565b5f80546001600160a01b038381166001600160a01b0319831681178455604051919092169283917f8be0079c531659141344cd1fd0a4f28419497f9722a3daafe3b4186f6b6457e09190a35050565b6107be8061009b5f395ff3fe608060405234801561000f575f5ffd5b5060043610610090575f3560e01c8063715018a611610063578063715018a6146101305780638da5cb5b1461013a5780638e53db9b1461014a578063d66d6c101461015d578063f2fde38b14610170575f5ffd5b806307973ccf1461009457806311231fe0146100aa578063163f7522146100ca578063598a96bf14610105575b5f5ffd5b6003546040519081526020015b60405180910390f35b6100bd6100b83660046106bd565b610183565b6040516100a191906106dd565b6100f56100d83660046106bd565b6001600160a01b03165f9081526002602052604090205460ff1690565b60405190151581526020016100a1565b61011861011336600461070d565b6101d3565b6040516001600160a01b0390911681526020016100a1565b610138610201565b005b5f546001600160a01b0316610118565b610138610158366004610724565b610214565b61013861016b366004610754565b6103b7565b61013861017e3660046106bd565b61057a565b61018b610632565b6001600160a01b0382165f90815260016020526040908190208151808301928390529160029082845b8154815260200190600101908083116101b45750505050509050919050565b5f600382815481106101e7576101e7610774565b5f918252602090912001546001600160a01b031692915050565b6102096105b7565b6102125f6105e3565b565b61021c6105b7565b8115158061022b575080600114155b6102715760405162461bcd60e51b8152602060048201526012602482015271496e76616c6964207075626c6963206b657960701b60448201526064015b60405180910390fd5b6001600160a01b0383165f8181526002602081815260408084205481518083018352888152808401889052958552600190925290922060ff90921615926102b89291610650565b506001600160a01b0384165f908152600260205260409020805460ff19166001179055801561036c57600380546001810182555f919091527fc2575a0e9e593c00f959f8c92f12db2869c3395a3b0502d05e2516446f71f85b0180546001600160a01b0319166001600160a01b03861690811790915560408051858152602081018590527f47c8e83729a89f8b0c23b722e4c21f48295ddfcd683910c564e11e6b6037d01c910160405180910390a26103b1565b60408051848152602081018490526001600160a01b038616917f97ce9d7086176d6da45e4e7999788176e2629a7591ffe505b0c1b13fe8052cc6910160405180910390a25b50505050565b811515806103c6575080600114155b6104125760405162461bcd60e51b815260206004820152601d60248201527f496e76616c6964207075626c6963206b657920286964656e74697479290000006044820152606401610268565b815f036104615760405162461bcd60e51b815260206004820152601b60248201527f5075626c6963206b657920582063616e6e6f74206265207a65726f00000000006044820152606401610268565b335f8181526002602081815260408084205481518083018352888152808401889052958552600190925290922060ff909216159261049f9291610650565b50335f908152600260205260409020805460ff19166001179055801561054257600380546001810182555f919091527fc2575a0e9e593c00f959f8c92f12db2869c3395a3b0502d05e2516446f71f85b0180546001600160a01b0319163390811790915560408051858152602081018590527f47c8e83729a89f8b0c23b722e4c21f48295ddfcd683910c564e11e6b6037d01c91015b60405180910390a2505050565b604080518481526020810184905233917f97ce9d7086176d6da45e4e7999788176e2629a7591ffe505b0c1b13fe8052cc69101610535565b6105826105b7565b6001600160a01b0381166105ab57604051631e4fbdf760e01b81525f6004820152602401610268565b6105b4816105e3565b50565b5f546001600160a01b031633146102125760405163118cdaa760e01b8152336004820152602401610268565b5f80546001600160a01b038381166001600160a01b0319831681178455604051919092169283917f8be0079c531659141344cd1fd0a4f28419497f9722a3daafe3b4186f6b6457e09190a35050565b60405180604001604052806002906020820280368337509192915050565b826002810192821561067e579160200282015b8281111561067e578251825591602001919060010190610663565b5061068a92915061068e565b5090565b5b8082111561068a575f815560010161068f565b80356001600160a01b03811681146106b8575f5ffd5b919050565b5f602082840312156106cd575f5ffd5b6106d6826106a2565b9392505050565b6040810181835f5b60028110156107045781518352602092830192909101906001016106e5565b50505092915050565b5f6020828403121561071d575f5ffd5b5035919050565b5f5f5f60608486031215610736575f5ffd5b61073f846106a2565b95602085013595506040909401359392505050565b5f5f60408385031215610765575f5ffd5b50508035926020909101359150565b634e487b7160e01b5f52603260045260245ffdfea2646970667358221220fdba592cd3fdd41a8e356fb4f22e776e454d809bc52fb3e7469b8e84c0f76eb364736f6c634300081b0033","linkReferences":{}},"methodIdentifiers":{"adminRegister(address,uint256,uint256)":"8e53db9b","getUserPublicKey(address)":"11231fe0","isUserRegistered(address)":"163f7522","owner()":"8da5cb5b","register(uint256,uint256)":"d66d6c10","renounceOwnership()":"715018a6","transferOwnership(address)":"f2fde38b","userAt(uint256)":"598a96bf","userCount()":"07973ccf"},"id":28}