{"abi":[{"type":"constructor","inputs":[{"name":"_registry","type":"address","internalType":"contract IVeilRegistry"},{"name":"_betVerifier","type":"address","internalType":"contract IVeilBetVerifier"},{"name":"_marketId","type":"uint256","internalType":"uint256"},{"name":"_question","type":"string","internalType":"string"},{"name":"_category","type":"string","internalType":"string"},{"name":"_resolutionTime","type":"uint256","internalType":"uint256"},{"name":"_minBet","type":"uint256","internalType":"uint256"},{"name":"_maxBet","type":"uint256","internalType":"uint256"},{"name":"_committee","type":"address[]","internalType":"address[]"},{"name":"_usdc","type":"address","internalType":"address"}],"stateMutability":"nonpayable"},{"type":"function","name":"betCount","inputs":[],"outputs":[{"name":"","type":"uint256","internalType":"uint256"}],"stateMutability":"view"},{"type":"function","name":"betVerifier","inputs":[],"outputs":[{"name":"","type":"address","internalType":"contract IVeilBetVerifier"}],"stateMutability":"view"},{"type":"function","name":"bets","inputs":[{"name":"","type":"uint256","internalType":"uint256"}],"outputs":[{"name":"bettor","type":"address","internalType":"address"},{"name":"timestamp","type":"uint256","internalType":"uint256"},{"name":"encryptedAmount","type":"tuple","internalType":"struct EGCT","components":[{"name":"c1","type":"tuple","internalType":"struct Point","components":[{"name":"x","type":"uint256","internalType":"uint256"},{"name":"y","type":"uint256","internalType":"uint256"}]},{"name":"c2","type":"tuple","internalType":"struct Point","components":[{"name":"x","type":"uint256","internalType":"uint256"},{"name":"y","type":"uint256","internalType":"uint256"}]}]},{"name":"side","type":"uint8","internalType":"uint8"},{"name":"nullifier","type":"bytes32","internalType":"bytes32"}],"stateMutability":"view"},{"type":"function","name":"category","inputs":[],"outputs":[{"name":"","type":"string","internalType":"string"}],"stateMutability":"view"},{"type":"function","name":"committee","inputs":[{"name":"","type":"uint256","internalType":"uint256"}],"outputs":[{"name":"","type":"address","internalType":"address"}],"stateMutability":"view"},{"type":"function","name":"committeeSize","inputs":[],"outputs":[{"name":"","type":"uint256","internalType":"uint256"}],"stateMutability":"view"},{"type":"function","name":"decryptionShares","inputs":[{"name":"","type":"uint256","internalType":"uint256"},{"name":"","type":"uint256","internalType":"uint256"}],"outputs":[{"name":"committeeMember","type":"address","internalType":"address"},{"name":"shareX","type":"uint256","internalType":"uint256"},{"name":"shareY","type":"uint256","internalType":"uint256"},{"name":"timestamp","type":"uint256","internalType":"uint256"}],"stateMutability":"view"},{"type":"function","name":"disputeOutcome","inputs":[],"outputs":[],"stateMutability":"nonpayable"},{"type":"function","name":"emitAuditorDecryption","inputs":[{"name":"betIndex","type":"uint256","internalType":"uint256"}],"outputs":[],"stateMutability":"nonpayable"},{"type":"function","name":"finalize","inputs":[],"outputs":[],"stateMutability":"nonpayable"},{"type":"function","name":"getBet","inputs":[{"name":"index","type":"uint256","internalType":"uint256"}],"outputs":[{"name":"","type":"tuple","internalType":"struct VeilMarket.Bet","components":[{"name":"bettor","type":"address","internalType":"address"},{"name":"timestamp","type":"uint256","internalType":"uint256"},{"name":"encryptedAmount","type":"tuple","internalType":"struct EGCT","components":[{"name":"c1","type":"tuple","internalType":"struct Point","components":[{"name":"x","type":"uint256","internalType":"uint256"},{"name":"y","type":"uint256","internalType":"uint256"}]},{"name":"c2","type":"tuple","internalType":"struct Point","components":[{"name":"x","type":"uint256","internalType":"uint256"},{"name":"y","type":"uint256","internalType":"uint256"}]}]},{"name":"side","type":"uint8","internalType":"uint8"},{"name":"nullifier","type":"bytes32","internalType":"bytes32"}]}],"stateMutability":"view"},{"type":"function","name":"getPools","inputs":[],"outputs":[{"name":"yes","type":"tuple","internalType":"struct EGCT","components":[{"name":"c1","type":"tuple","internalType":"struct Point","components":[{"name":"x","type":"uint256","internalType":"uint256"},{"name":"y","type":"uint256","internalType":"uint256"}]},{"name":"c2","type":"tuple","internalType":"struct Point","components":[{"name":"x","type":"uint256","internalType":"uint256"},{"name":"y","type":"uint256","internalType":"uint256"}]}]},{"name":"no","type":"tuple","internalType":"struct EGCT","components":[{"name":"c1","type":"tuple","internalType":"struct Point","components":[{"name":"x","type":"uint256","internalType":"uint256"},{"name":"y","type":"uint256","internalType":"uint256"}]},{"name":"c2","type":"tuple","internalType":"struct Point","components":[{"name":"x","type":"uint256","internalType":"uint256"},{"name":"y","type":"uint256","internalType":"uint256"}]}]}],"stateMutability":"view"},{"type":"function","name":"getPublishedOdds","inputs":[],"outputs":[{"name":"yesTotal","type":"uint256","internalType":"uint256"},{"name":"noTotal","type":"uint256","internalType":"uint256"},{"name":"totalBets","type":"uint256","internalType":"uint256"}],"stateMutability":"view"},{"type":"function","name":"hasSubmittedShare","inputs":[{"name":"","type":"uint256","internalType":"uint256"},{"name":"","type":"address","internalType":"address"}],"outputs":[{"name":"","type":"bool","internalType":"bool"}],"stateMutability":"view"},{"type":"function","name":"isAcceptingBets","inputs":[],"outputs":[{"name":"","type":"bool","internalType":"bool"}],"stateMutability":"view"},{"type":"function","name":"isCommitteeMember","inputs":[{"name":"","type":"address","internalType":"address"}],"outputs":[{"name":"","type":"bool","internalType":"bool"}],"stateMutability":"view"},{"type":"function","name":"lastDecryptionRound","inputs":[],"outputs":[{"name":"","type":"uint256","internalType":"uint256"}],"stateMutability":"view"},{"type":"function","name":"marketId","inputs":[],"outputs":[{"name":"","type":"uint256","internalType":"uint256"}],"stateMutability":"view"},{"type":"function","name":"maxBet","inputs":[],"outputs":[{"name":"","type":"uint256","internalType":"uint256"}],"stateMutability":"view"},{"type":"function","name":"minBet","inputs":[],"outputs":[{"name":"","type":"uint256","internalType":"uint256"}],"stateMutability":"view"},{"type":"function","name":"noPool","inputs":[],"outputs":[{"name":"c1","type":"tuple","internalType":"struct Point","components":[{"name":"x","type":"uint256","internalType":"uint256"},{"name":"y","type":"uint256","internalType":"uint256"}]},{"name":"c2","type":"tuple","internalType":"struct Point","components":[{"name":"x","type":"uint256","internalType":"uint256"},{"name":"y","type":"uint256","internalType":"uint256"}]}],"stateMutability":"view"},{"type":"function","name":"nullifiers","inputs":[{"name":"","type":"bytes32","internalType":"bytes32"}],"outputs":[{"name":"","type":"bool","internalType":"bool"}],"stateMutability":"view"},{"type":"function","name":"outcome","inputs":[],"outputs":[{"name":"","type":"uint8","internalType":"enum VeilMarket.Outcome"}],"stateMutability":"view"},{"type":"function","name":"owner","inputs":[],"outputs":[{"name":"","type":"address","internalType":"address"}],"stateMutability":"view"},{"type":"function","name":"pause","inputs":[],"outputs":[],"stateMutability":"nonpayable"},{"type":"function","name":"paused","inputs":[],"outputs":[{"name":"","type":"bool","internalType":"bool"}],"stateMutability":"view"},{"type":"function","name":"placeBet","inputs":[{"name":"proofA","type":"uint256[2]","internalType":"uint256[2]"},{"name":"proofB","type":"uint256[2][2]","internalType":"uint256[2][2]"},{"name":"proofC","type":"uint256[2]","internalType":"uint256[2]"},{"name":"publicSignals","type":"uint256[5]","internalType":"uint256[5]"},{"name":"side","type":"uint8","internalType":"uint8"},{"name":"encryptedBet","type":"tuple","internalType":"struct EGCT","components":[{"name":"c1","type":"tuple","internalType":"struct Point","components":[{"name":"x","type":"uint256","internalType":"uint256"},{"name":"y","type":"uint256","internalType":"uint256"}]},{"name":"c2","type":"tuple","internalType":"struct Point","components":[{"name":"x","type":"uint256","internalType":"uint256"},{"name":"y","type":"uint256","internalType":"uint256"}]}]},{"name":"plaintextAmount","type":"uint256","internalType":"uint256"}],"outputs":[],"stateMutability":"nonpayable"},{"type":"function","name":"postOutcome","inputs":[{"name":"_outcome","type":"uint8","internalType":"uint8"}],"outputs":[],"stateMutability":"nonpayable"},{"type":"function","name":"publishDecryptedTotals","inputs":[{"name":"yesTotal","type":"uint256","internalType":"uint256"},{"name":"noTotal","type":"uint256","internalType":"uint256"}],"outputs":[],"stateMutability":"nonpayable"},{"type":"function","name":"publishedTotals","inputs":[],"outputs":[{"name":"yesTotal","type":"uint256","internalType":"uint256"},{"name":"noTotal","type":"uint256","internalType":"uint256"},{"name":"totalBets","type":"uint256","internalType":"uint256"},{"name":"lastDecryptionRound","type":"uint256","internalType":"uint256"}],"stateMutability":"view"},{"type":"function","name":"question","inputs":[],"outputs":[{"name":"","type":"string","internalType":"string"}],"stateMutability":"view"},{"type":"function","name":"registry","inputs":[],"outputs":[{"name":"","type":"address","internalType":"contract IVeilRegistry"}],"stateMutability":"view"},{"type":"function","name":"renounceOwnership","inputs":[],"outputs":[],"stateMutability":"nonpayable"},{"type":"function","name":"resolutionTime","inputs":[],"outputs":[{"name":"","type":"uint256","internalType":"uint256"}],"stateMutability":"view"},{"type":"function","name":"resolutionTimestamp","inputs":[],"outputs":[{"name":"","type":"uint256","internalType":"uint256"}],"stateMutability":"view"},{"type":"function","name":"status","inputs":[],"outputs":[{"name":"","type":"uint8","internalType":"enum VeilMarket.MarketStatus"}],"stateMutability":"view"},{"type":"function","name":"submitDecryptionShare","inputs":[{"name":"round","type":"uint256","internalType":"uint256"},{"name":"shareX","type":"uint256","internalType":"uint256"},{"name":"shareY","type":"uint256","internalType":"uint256"}],"outputs":[],"stateMutability":"nonpayable"},{"type":"function","name":"transferOwnership","inputs":[{"name":"newOwner","type":"address","internalType":"address"}],"outputs":[],"stateMutability":"nonpayable"},{"type":"function","name":"unpause","inputs":[],"outputs":[],"stateMutability":"nonpayable"},{"type":"function","name":"usdc","inputs":[],"outputs":[{"name":"","type":"address","internalType":"contract IERC20"}],"stateMutability":"view"},{"type":"function","name":"yesPool","inputs":[],"outputs":[{"name":"c1","type":"tuple","internalType":"struct Point","components":[{"name":"x","type":"uint256","internalType":"uint256"},{"name":"y","type":"uint256","internalType":"uint256"}]},{"name":"c2","type":"tuple","internalType":"struct Point","components":[{"name":"x","type":"uint256","internalType":"uint256"},{"name":"y","type":"uint256","internalType":"uint256"}]}],"stateMutability":"view"},{"type":"event","name":"AuditorDecryption","inputs":[{"name":"marketId","type":"uint256","indexed":true,"internalType":"uint256"},{"name":"betIndex","type":"uint256","indexed":true,"internalType":"uint256"},{"name":"bettor","type":"address","indexed":true,"internalType":"address"},{"name":"nullifier","type":"bytes32","indexed":false,"internalType":"bytes32"}],"anonymous":false},{"type":"event","name":"BetPlaced","inputs":[{"name":"marketId","type":"uint256","indexed":true,"internalType":"uint256"},{"name":"bettor","type":"address","indexed":true,"internalType":"address"},{"name":"side","type":"uint8","indexed":false,"internalType":"uint8"},{"name":"nullifier","type":"bytes32","indexed":false,"internalType":"bytes32"},{"name":"encryptedAmount","type":"tuple","indexed":false,"internalType":"struct EGCT","components":[{"name":"c1","type":"tuple","internalType":"struct Point","components":[{"name":"x","type":"uint256","internalType":"uint256"},{"name":"y","type":"uint256","internalType":"uint256"}]},{"name":"c2","type":"tuple","internalType":"struct Point","components":[{"name":"x","type":"uint256","internalType":"uint256"},{"name":"y","type":"uint256","internalType":"uint256"}]}]}],"anonymous":false},{"type":"event","name":"DecryptionShareSubmitted","inputs":[{"name":"marketId","type":"uint256","indexed":true,"internalType":"uint256"},{"name":"committeeMember","type":"address","indexed":true,"internalType":"address"},{"name":"round","type":"uint256","indexed":false,"internalType":"uint256"}],"anonymous":false},{"type":"event","name":"MarketResolved","inputs":[{"name":"marketId","type":"uint256","indexed":true,"internalType":"uint256"},{"name":"outcome","type":"uint8","indexed":false,"internalType":"enum VeilMarket.Outcome"},{"name":"timestamp","type":"uint256","indexed":false,"internalType":"uint256"}],"anonymous":false},{"type":"event","name":"OwnershipTransferred","inputs":[{"name":"previousOwner","type":"address","indexed":true,"internalType":"address"},{"name":"newOwner","type":"address","indexed":true,"internalType":"address"}],"anonymous":false},{"type":"event","name":"Paused","inputs":[{"name":"account","type":"address","indexed":false,"internalType":"address"}],"anonymous":false},{"type":"event","name":"PoolDecrypted","inputs":[{"name":"marketId","type":"uint256","indexed":true,"internalType":"uint256"},{"name":"round","type":"uint256","indexed":false,"internalType":"uint256"},{"name":"yesTotal","type":"uint256","indexed":false,"internalType":"uint256"},{"name":"noTotal","type":"uint256","indexed":false,"internalType":"uint256"},{"name":"totalBets","type":"uint256","indexed":false,"internalType":"uint256"}],"anonymous":false},{"type":"event","name":"Unpaused","inputs":[{"name":"account","type":"address","indexed":false,"internalType":"address"}],"anonymous":false},{"type":"error","name":"EnforcedPause","inputs":[]},{"type":"error","name":"ExpectedPause","inputs":[]},{"type":"error","name":"OwnableInvalidOwner","inputs":[{"name":"owner","type":"address","internalType":"address"}]},{"type":"error","name":"OwnableUnauthorizedAccount","inputs":[{"name":"account","type":"address","internalType":"address"}]}],"bytecode":{"object":"0x610160604052348015610010575f5ffd5b50604051612a16380380612a1683398101604081905261002f9161037f565b338061005457604051631e4fbdf760e01b81525f600482015260240160405180910390fd5b61005d816101d2565b506001600160a01b03808b1660805289811660a052811660c05260e0889052600161008888826104f7565b50600261009587826104f7565b506101008590526101208490526101408390525f5b825181101561015357600d8382815181106100c7576100c76105b1565b6020908102919091018101518254600180820185555f9485529284200180546001600160a01b0319166001600160a01b0390921691909117905584519091600e9186908590811061011a5761011a6105b1565b6020908102919091018101516001600160a01b031682528101919091526040015f20805460ff19169115159190911790556001016100aa565b50506040805180820182525f815260016020808301918252835180850185528381528101839052825160038190558251600481905560059190915560065583518085019094528284529290920181905251600781905590516008819055600991909155600a5550506016805460ff19169055506105c595505050505050565b5f80546001600160a01b038381166001600160a01b0319831681178455604051919092169283917f8be0079c531659141344cd1fd0a4f28419497f9722a3daafe3b4186f6b6457e09190a35050565b6001600160a01b0381168114610235575f5ffd5b50565b805161024381610221565b919050565b634e487b7160e01b5f52604160045260245ffd5b604051601f8201601f191681016001600160401b038111828210171561028457610284610248565b604052919050565b5f82601f83011261029b575f5ffd5b81516001600160401b038111156102b4576102b4610248565b6102c7601f8201601f191660200161025c565b8181528460208386010111156102db575f5ffd5b8160208501602083015e5f918101602001919091529392505050565b5f82601f830112610306575f5ffd5b81516001600160401b0381111561031f5761031f610248565b8060051b61032f6020820161025c565b9182526020818501810192908101908684111561034a575f5ffd5b6020860192505b8383101561037557825161036481610221565b825260209283019290910190610351565b9695505050505050565b5f5f5f5f5f5f5f5f5f5f6101408b8d031215610399575f5ffd5b6103a28b610238565b99506103b060208c01610238565b60408c015160608d0151919a5098506001600160401b038111156103d2575f5ffd5b6103de8d828e0161028c565b60808d015190985090506001600160401b038111156103fb575f5ffd5b6104078d828e0161028c565b9650505f60a08c01519050809550505f60c08c01519050809450505f60e08c01519050809350506101008b015160018060401b03811115610446575f5ffd5b6104528d828e016102f7565b9250506104626101208c01610238565b90509295989b9194979a5092959850565b600181811c9082168061048757607f821691505b6020821081036104a557634e487b7160e01b5f52602260045260245ffd5b50919050565b601f8211156104f257805f5260205f20601f840160051c810160208510156104d05750805b601f840160051c820191505b818110156104ef575f81556001016104dc565b50505b505050565b81516001600160401b0381111561051057610510610248565b6105248161051e8454610473565b846104ab565b6020601f821160018114610556575f831561053f5750848201515b5f19600385901b1c1916600184901b1784556104ef565b5f84815260208120601f198516915b828110156105855787850151825560209485019460019092019101610565565b50848210156105a257868401515f19600387901b60f8161c191681555b50505050600190811b01905550565b634e487b7160e01b5f52603260045260245ffd5b60805160a05160c05160e0516101005161012051610140516123a56106715f395f6103e501525f61057401525f818161068201528181610832015281816118e5015261197901525f81816104ba01528181610b3801528181610ffc0152818161116f01528181611336015281816116c9015281816118730152611d1001525f81816104470152610bdb01525f81816102b90152610a2c01525f818161052c015261090601526123a55ff3fe608060405234801561000f575f5ffd5b506004361061024a575f3560e01c8063715018a611610140578063ca503110116100bf578063ee99af0f11610084578063ee99af0f14610647578063ef430aa61461064f578063efced1e414610657578063f2fde38b1461066a578063f3e41e901461067d578063fba2edb5146106a4575f5ffd5b8063ca503110146105ee578063ce1b618614610601578063cf09449714610614578063d85a1eec1461061c578063e636d84b14610625575f5ffd5b80639619367d116101055780639619367d1461056f5780639cf4364b14610596578063a3b5afb11461059e578063afe7fcf4146105d3578063b77641ad146105e6575f5ffd5b8063715018a61461051f5780637b103999146105275780638456cb591461054e57806385af5d35146105565780638da5cb5b1461055f575f5ffd5b80632e5b2168116101cc5780634bb278f3116101915780634bb278f3146104865780635c975abb1461048e578063673a2a1f1461049f5780636ed71ede146104b55780636f1d4ea4146104dc575f5ffd5b80632e5b2168146103e05780633ddfe6b1146104155780633e413bee146104425780633f4ba83a146104695780633fad9ae014610471575f5ffd5b806322af00fa1161021257806322af00fa146103225780632689b85c1461034657806327793f87146103595780632997e86b146103785780632ce92a18146103aa575f5ffd5b8063061e494f1461024e5780630db41a9c1461027757806316faf66f146102b4578063200d2ed2146102f357806322ae36621461030d575b5f5ffd5b61026161025c366004611dfd565b6106c8565b60405161026e9190611e40565b60405180910390f35b61028a610285366004611e8c565b61077e565b604080516001600160a01b039095168552602085019390935291830152606082015260800161026e565b6102db7f000000000000000000000000000000000000000000000000000000000000000081565b6040516001600160a01b03909116815260200161026e565b6016546103009060ff1681565b60405161026e9190611ec0565b61032061031b366004611f05565b6107ca565b005b610335610330366004611dfd565b611050565b60405161026e959493929190611f9f565b610320610354366004611e8c565b6110d4565b60165461036b90610100900460ff1681565b60405161026e9190611fee565b61039a610386366004611dfd565b600c6020525f908152604090205460ff1681565b604051901515815260200161026e565b6012546013546014546015546103c09392919084565b60408051948552602085019390935291830152606082015260800161026e565b6104077f000000000000000000000000000000000000000000000000000000000000000081565b60405190815260200161026e565b61039a610423366004612012565b601060209081525f928352604080842090915290825290205460ff1681565b6102db7f000000000000000000000000000000000000000000000000000000000000000081565b6103206111bf565b6104796111d1565b60405161026e919061203c565b61032061125d565b5f54600160a01b900460ff1661039a565b6104a7611397565b60405161026e929190612071565b6104077f000000000000000000000000000000000000000000000000000000000000000081565b604080518082018252600354815260045460208083019190915282518084019093526005548352600654908301526105119182565b60405161026e929190612094565b610320611425565b6102db7f000000000000000000000000000000000000000000000000000000000000000081565b610320611436565b61040760175481565b5f546001600160a01b03166102db565b6104077f000000000000000000000000000000000000000000000000000000000000000081565b600d54610407565b604080518082018252600754815260085460208083019190915282518084019093526009548352600a54908301526105119182565b6102db6105e1366004611dfd565b611446565b61032061146e565b6103206105fc3660046120ba565b61153a565b61032061060f366004611dfd565b611762565b600b54610407565b61040760115481565b61039a6106333660046120e3565b600e6020525f908152604090205460ff1681565b61039a6118c2565b61047961190c565b6103206106653660046120fc565b611919565b6103206106783660046120e3565b611ae2565b6104077f000000000000000000000000000000000000000000000000000000000000000081565b6012546013546014546040805193845260208401929092529082015260600161026e565b6106d0611d8b565b600b82815481106106e3576106e3612115565b5f9182526020918290206040805160a081018252600890930290910180546001600160a01b031683526001810154838501528151608080820184526002830154828501908152600384015460608085019190915290835284518086018652600485015481526005850154818901529683019690965292840152600681015460ff16938301939093526007909201549181019190915292915050565b600f602052815f5260405f208181548110610797575f80fd5b5f91825260209091206004909102018054600182015460028301546003909301546001600160a01b039092169450925084565b6107d2611b1f565b5f60165460ff1660038111156107ea576107ea611eac565b146108305760405162461bcd60e51b81526020600482015260116024820152704d61726b6574206e6f742061637469766560781b60448201526064015b60405180910390fd5b7f000000000000000000000000000000000000000000000000000000000000000042106108905760405162461bcd60e51b815260206004820152600e60248201526d13585c9ad95d08195e1c1a5c995960921b6044820152606401610827565b8260ff16600114806108a557508260ff166002145b6108f15760405162461bcd60e51b815260206004820152601a60248201527f496e76616c696420736964652028313d5945532c20323d4e4f290000000000006044820152606401610827565b604051630b1fba9160e11b81523360048201527f00000000000000000000000000000000000000000000000000000000000000006001600160a01b03169063163f752290602401602060405180830381865afa158015610953573d5f5f3e3d5ffd5b505050506040513d601f19601f820116820180604052508101906109779190612129565b6109b95760405162461bcd60e51b8152602060048201526013602482015272155cd95c881b9bdd081c9959da5cdd195c9959606a1b6044820152606401610827565b60808401355f818152600c602052604090205460ff1615610a155760405162461bcd60e51b8152602060048201526016602482015275139d5b1b1a599a595c88185b1c9958591e481d5cd95960521b6044820152606401610827565b6040516334baeab960e01b81526001600160a01b037f000000000000000000000000000000000000000000000000000000000000000016906334baeab990610a67908b908b908b908b90600401612148565b602060405180830381865afa158015610a82573d5f5f3e3d5ffd5b505050506040513d601f19601f82011682018060405250810190610aa69190612129565b610ae65760405162461bcd60e51b815260206004820152601160248201527024b73b30b634b2103132ba10383937b7b360791b6044820152606401610827565b6001600160a01b038535163314610b315760405162461bcd60e51b815260206004820152600f60248201526e084cae8e8dee440dad2e6dac2e8c6d608b1b6044820152606401610827565b60208501357f000000000000000000000000000000000000000000000000000000000000000014610b995760405162461bcd60e51b815260206004820152601260248201527109ac2e4d6cae840928840dad2e6dac2e8c6d60731b6044820152606401610827565b5f818152600c602052604090819020805460ff19166001179055516323b872dd60e01b8152336004820152306024820152604481018390526001600160a01b037f000000000000000000000000000000000000000000000000000000000000000016906323b872dd906064016020604051808303815f875af1158015610c21573d5f5f3e3d5ffd5b505050506040513d601f19601f82011682018060405250810190610c459190612129565b610c885760405162461bcd60e51b81526020600482015260146024820152731554d110c81d1c985b9cd9995c8819985a5b195960621b6044820152606401610827565b6040805160a081018252338152426020820152600b918101610caf368790038701876121fb565b815260ff878116602080840182905260409384018790528554600180820188555f97885296829020865160089092020180546001600160a01b0319166001600160a01b0390921691909117815585820151818801559385015180518051600287015582015160038601558101518051600486015501516005840155606084015160068401805460ff191691909316179091556080909201516007909101559003610e8d5760408051808201825260035481526004805460208301529151637bb10bcb60e01b815273__$096a1b5e3ce8eaab1d6be3071b5269fbe0$__92637bb10bcb92610da092909188910161223a565b6040805180830381865af4158015610dba573d5f5f3e3d5ffd5b505050506040513d601f19601f82011682018060405250810190610dde9190612260565b805160035560209081015160049081556040805180820182526005548152600654938101939093528051637bb10bcb60e01b815273__$096a1b5e3ce8eaab1d6be3071b5269fbe0$__93637bb10bcb93610e3e939192918901910161223a565b6040805180830381865af4158015610e58573d5f5f3e3d5ffd5b505050506040513d601f19601f82011682018060405250810190610e7c9190612260565b805160055560200151600655610fc1565b604080518082018252600754815260085460208201529051637bb10bcb60e01b815273__$096a1b5e3ce8eaab1d6be3071b5269fbe0$__91637bb10bcb91610eda9190879060040161223a565b6040805180830381865af4158015610ef4573d5f5f3e3d5ffd5b505050506040513d601f19601f82011682018060405250810190610f189190612260565b80516007556020908101516008556040805180820182526009548152600a54928101929092528051637bb10bcb60e01b815273__$096a1b5e3ce8eaab1d6be3071b5269fbe0$__92637bb10bcb92610f76929088019060040161223a565b6040805180830381865af4158015610f90573d5f5f3e3d5ffd5b505050506040513d601f19601f82011682018060405250810190610fb49190612260565b805160095560200151600a555b6040805160ff86168152602080820184905285358284015285013560608083019190915285830135608083015285013560a0820152905133917f0000000000000000000000000000000000000000000000000000000000000000917fe6255d576858a9943b7672823ba783f7343a9d654e1a80e96bebba875c1ebfb89181900360c00190a35050505050505050565b600b818154811061105f575f80fd5b5f918252602091829020600890910201805460018201546040805160808101825260028501548183019081526003860154606083015281528151808301909252600485015482526005850154828701529485015260068301546007909301546001600160a01b039092169450929160ff169085565b335f908152600e602052604090205460ff166111025760405162461bcd60e51b815260040161082790612291565b5f601154600161111291906122d3565b60408051608080820183528682526020808301879052600b548385018190526060938401869052601289905560138890556014819055601586905560118690558451868152918201899052938101879052918201929092529192507f0000000000000000000000000000000000000000000000000000000000000000917f03811ecf0fadf29e37fd2a312b1dc967205919a634e2cabc99e2a755fcef95a3910160405180910390a2505050565b6111c7611b49565b6111cf611b75565b565b600180546111de906122e6565b80601f016020809104026020016040519081016040528092919081815260200182805461120a906122e6565b80156112555780601f1061122c57610100808354040283529160200191611255565b820191905f5260205f20905b81548152906001019060200180831161123857829003601f168201915b505050505081565b600160165460ff16600381111561127657611276611eac565b146112c35760405162461bcd60e51b815260206004820152601f60248201527f4e6f7420696e207265736f6c7574696f6e2070656e64696e67207374617465006044820152606401610827565b6017546112d390620151806122d3565b4210156113225760405162461bcd60e51b815260206004820152601760248201527f446973707574652077696e646f77206e6f74206f7665720000000000000000006044820152606401610827565b6016805460ff1916600217908190556040517f0000000000000000000000000000000000000000000000000000000000000000917f661ce16e44a34377fc37c19874f4b1bec6e84b072cf8d318838fe17c20c58e449161138d9160ff6101009091041690429061231e565b60405180910390a2565b61139f611dbc565b6113a7611dbc565b5050604080516080808201835260035482840190815260045460608085019190915290835283518085018552600554815260065460208281019190915280850191909152845192830185526007548386019081526008549284019290925290825283518085019094526009548452600a548482015281019290925291565b61142d611b49565b6111cf5f611bc9565b61143e611b49565b6111cf611c18565b600d8181548110611455575f80fd5b5f918252602090912001546001600160a01b0316905081565b600160165460ff16600381111561148757611487611eac565b146114d45760405162461bcd60e51b815260206004820152601f60248201527f4e6f7420696e207265736f6c7574696f6e2070656e64696e67207374617465006044820152606401610827565b6017546114e490620151806122d3565b421061152a5760405162461bcd60e51b8152602060048201526015602482015274111a5cdc1d5d19481dda5b991bddc818db1bdcd959605a1b6044820152606401610827565b6016805461ffff19166003179055565b335f908152600e602052604090205460ff166115685760405162461bcd60e51b815260040161082790612291565b60115483116115b95760405162461bcd60e51b815260206004820152601760248201527f526f756e6420616c7265616479206465637279707465640000000000000000006044820152606401610827565b5f83815260106020908152604080832033845290915290205460ff16156116225760405162461bcd60e51b815260206004820181905260248201527f416c7265616479207375626d697474656420666f72207468697320726f756e646044820152606401610827565b5f838152601060209081526040808320338085529083528184208054600160ff199091168117909155878552600f84528285208351608081018552838152808601898152818601898152426060840190815284548087018655948a52988890209251600490940290920180546001600160a01b0319166001600160a01b039094169390931783555192820192909255905160028201559351600390940193909355518581527f0000000000000000000000000000000000000000000000000000000000000000917fa8d3ebb8b3d2b5ee74836edf9ca16e0ff9ff9f48a210087b05432e1352d365a4910160405180910390a3600d545f90600390611727906002612339565b6117319190612350565b61173c9060016122d3565b5f858152600f6020526040902054909150811161175c5761175c84611c5a565b50505050565b335f908152600e602052604090205460ff166117905760405162461bcd60e51b815260040161082790612291565b600260165460ff1660038111156117a9576117a9611eac565b146117ec5760405162461bcd60e51b815260206004820152601360248201527213585c9ad95d081b9bdd081c995cdbdb1d9959606a1b6044820152606401610827565b600b5481106118315760405162461bcd60e51b8152602060048201526011602482015270092dcecc2d8d2c840c4cae840d2dcc8caf607b1b6044820152606401610827565b5f600b828154811061184557611845612115565b5f918252602091829020600890910201805460078201546040519081529193506001600160a01b03169184917f0000000000000000000000000000000000000000000000000000000000000000917f915d1c7ef5500dffb9b75f3168e02ee6cb9174ba3f38110fdf80493a751e4b5f910160405180910390a45050565b5f8060165460ff1660038111156118db576118db611eac565b14801561190757507f000000000000000000000000000000000000000000000000000000000000000042105b905090565b600280546111de906122e6565b335f908152600e602052604090205460ff166119775760405162461bcd60e51b815260206004820152601f60248201527f4f6e6c7920636f6d6d69747465652063616e20706f7374206f7574636f6d65006044820152606401610827565b7f00000000000000000000000000000000000000000000000000000000000000004210156119de5760405162461bcd60e51b8152602060048201526014602482015273546f6f206561726c7920746f207265736f6c766560601b6044820152606401610827565b5f60165460ff1660038111156119f6576119f6611eac565b14611a435760405162461bcd60e51b815260206004820152601a60248201527f4d61726b6574206e6f7420696e206163746976652073746174650000000000006044820152606401610827565b8060ff1660011480611a5857508060ff166002145b611a965760405162461bcd60e51b815260206004820152600f60248201526e496e76616c6964206f7574636f6d6560881b6044820152606401610827565b8060ff166002811115611aab57611aab611eac565b6016805461ff001916610100836002811115611ac957611ac9611eac565b0217905550506016805460ff1916600117905542601755565b611aea611b49565b6001600160a01b038116611b1357604051631e4fbdf760e01b81525f6004820152602401610827565b611b1c81611bc9565b50565b5f54600160a01b900460ff16156111cf5760405163d93c066560e01b815260040160405180910390fd5b5f546001600160a01b031633146111cf5760405163118cdaa760e01b8152336004820152602401610827565b611b7d611d62565b5f805460ff60a01b191690557f5db9ee0a495bf2e6ff9c91a7834c1ba4fdd244a5e8aa4e537bd38aeae4b073aa335b6040516001600160a01b03909116815260200160405180910390a1565b5f80546001600160a01b038381166001600160a01b0319831681178455604051919092169283917f8be0079c531659141344cd1fd0a4f28419497f9722a3daafe3b4186f6b6457e09190a35050565b611c20611b1f565b5f805460ff60a01b1916600160a01b1790557f62e78cea01bee320cd4e420270b5ea74000d11b0c9f74754ebdbfc544b05a258611bac3390565b5f818152600f60205260408120805490919082908290611c7c57611c7c612115565b905f5260205f2090600402016001015490505f825f81548110611ca157611ca1612115565b5f9182526020918290206004919091020160020154600b54604080516080808201835287825281860185905281830184905260609182018a905260128890556013859055601484905560158a905560118a905582518a81529586018890529185018490528401829052919350917f0000000000000000000000000000000000000000000000000000000000000000917f03811ecf0fadf29e37fd2a312b1dc967205919a634e2cabc99e2a755fcef95a3910160405180910390a25050505050565b5f54600160a01b900460ff166111cf57604051638dfc202b60e01b815260040160405180910390fd5b6040805160a0810182525f8082526020820152908101611da9611dbc565b81525f6020820181905260409091015290565b604080516080810182525f91810182815260608201929092529081908152602001611df860405180604001604052805f81526020015f81525090565b905290565b5f60208284031215611e0d575f5ffd5b5035919050565b611e2982825180518252602090810151910152565b602090810151805160408401520151606090910152565b81516001600160a01b0316815260208083015190820152604080830151610100830191611e6f90840182611e14565b50606083015160ff1660c083015260809092015160e09091015290565b5f5f60408385031215611e9d575f5ffd5b50508035926020909101359150565b634e487b7160e01b5f52602160045260245ffd5b6020810160048310611ed457611ed4611eac565b91905290565b8060408101831015611eea575f5ffd5b92915050565b803560ff81168114611f00575f5ffd5b919050565b5f5f5f5f5f5f5f878903610260811215611f1d575f5ffd5b611f278a8a611eda565b975060c089018a811115611f39575f5ffd5b60408a019750611f498b82611eda565b9650506101a089018a811115611f5d575f5ffd5b6101008a019550611f6d81611ef0565b94505060806101bf1982011215611f82575f5ffd5b5095989497509295919450926101c0820192506102409091013590565b6001600160a01b0386168152602081018590526101008101611fc46040830186611e14565b60ff9390931660c082015260e001529392505050565b60038110611fea57611fea611eac565b9052565b60208101611eea8284611fda565b80356001600160a01b0381168114611f00575f5ffd5b5f5f60408385031215612023575f5ffd5b8235915061203360208401611ffc565b90509250929050565b602081525f82518060208401528060208501604085015e5f604082850101526040601f19601f83011684010191505092915050565b61010081016120808285611e14565b61208d6080830184611e14565b9392505050565b82518152602080840151818301528251604083015282015160608201526080810161208d565b5f5f5f606084860312156120cc575f5ffd5b505081359360208301359350604090920135919050565b5f602082840312156120f3575f5ffd5b61208d82611ffc565b5f6020828403121561210c575f5ffd5b61208d82611ef0565b634e487b7160e01b5f52603260045260245ffd5b5f60208284031215612139575f5ffd5b8151801515811461208d575f5ffd5b6101a08101604086833760408201855f5b600281101561217a5760408284376040928301929190910190600101612159565b50505060408460c084013760a08361010084013795945050505050565b6040805190810167ffffffffffffffff811182821017156121c657634e487b7160e01b5f52604160045260245ffd5b60405290565b5f604082840312156121dc575f5ffd5b6121e4612197565b823581526020928301359281019290925250919050565b5f608082840312801561220c575f5ffd5b50612215612197565b61221f84846121cc565b815261222e84604085016121cc565b60208201529392505050565b82518152602080840151818301528235604083015282013560608201526080810161208d565b5f6040828403128015612271575f5ffd5b5061227a612197565b825181526020928301519281019290925250919050565b6020808252601490820152732737ba1031b7b6b6b4ba3a32b29036b2b6b132b960611b604082015260600190565b634e487b7160e01b5f52601160045260245ffd5b80820180821115611eea57611eea6122bf565b600181811c908216806122fa57607f821691505b60208210810361231857634e487b7160e01b5f52602260045260245ffd5b50919050565b6040810161232c8285611fda565b8260208301529392505050565b8082028115828204841417611eea57611eea6122bf565b5f8261236a57634e487b7160e01b5f52601260045260245ffd5b50049056fea2646970667358221220c51356c405dbadf013cf0b162901d74618684c0394caa39ba26d800841ab6cd464736f6c634300081b0033","linkReferences":{"lib/EncryptedERC/contracts/libraries/BabyJubJub.sol":{"BabyJubJub":[{"start":5097,"length":20},{"start":5253,"length":20},{"start":5410,"length":20},{"start":5565,"length":20}]}}},"methodIdentifiers":{"betCount()":"cf094497","betVerifier()":"16faf66f","bets(uint256)":"22af00fa","category()":"ef430aa6","committee(uint256)":"afe7fcf4","committeeSize()":"9cf4364b","decryptionShares(uint256,uint256)":"0db41a9c","disputeOutcome()":"b77641ad","emitAuditorDecryption(uint256)":"ce1b6186","finalize()":"4bb278f3","getBet(uint256)":"061e494f","getPools()":"673a2a1f","getPublishedOdds()":"fba2edb5","hasSubmittedShare(uint256,address)":"3ddfe6b1","isAcceptingBets()":"ee99af0f","isCommitteeMember(address)":"e636d84b","lastDecryptionRound()":"d85a1eec","marketId()":"6ed71ede","maxBet()":"2e5b2168","minBet()":"9619367d","noPool()":"a3b5afb1","nullifiers(bytes32)":"2997e86b","outcome()":"27793f87","owner()":"8da5cb5b","pause()":"8456cb59","paused()":"5c975abb","placeBet(uint256[2],uint256[2][2],uint256[2],uint256[5],uint8,((uint256,uint256),(uint256,uint256)),uint256)":"22ae3662","postOutcome(uint8)":"efced1e4","publishDecryptedTotals(uint256,uint256)":"2689b85c","publishedTotals()":"2ce92a18","question()":"3fad9ae0","registry()":"7b103999","renounceOwnership()":"715018a6","resolutionTime()":"f3e41e90","resolutionTimestamp()":"85af5d35","status()":"200d2ed2","submitDecryptionShare(uint256,uint256,uint256)":"ca503110","transferOwnership(address)":"f2fde38b","unpause()":"3f4ba83a","usdc()":"3e413bee","yesPool()":"6f1d4ea4"},"id":25}