{"abi":[{"type":"constructor","inputs":[{"name":"_registry","type":"address","internalType":"contract IVeilRegistry"},{"name":"_betVerifier","type":"address","internalType":"contract IVeilBetVerifier"},{"name":"_marketId","type":"uint256","internalType":"uint256"},{"name":"_question","type":"string","internalType":"string"},{"name":"_category","type":"string","internalType":"string"},{"name":"_resolutionTime","type":"uint256","internalType":"uint256"},{"name":"_minBet","type":"uint256","internalType":"uint256"},{"name":"_maxBet","type":"uint256","internalType":"uint256"},{"name":"_committee","type":"address[]","internalType":"address[]"}],"stateMutability":"nonpayable"},{"type":"function","name":"betCount","inputs":[],"outputs":[{"name":"","type":"uint256","internalType":"uint256"}],"stateMutability":"view"},{"type":"function","name":"betVerifier","inputs":[],"outputs":[{"name":"","type":"address","internalType":"contract IVeilBetVerifier"}],"stateMutability":"view"},{"type":"function","name":"bets","inputs":[{"name":"","type":"uint256","internalType":"uint256"}],"outputs":[{"name":"bettor","type":"address","internalType":"address"},{"name":"timestamp","type":"uint256","internalType":"uint256"},{"name":"encryptedAmount","type":"tuple","internalType":"struct EGCT","components":[{"name":"c1","type":"tuple","internalType":"struct Point","components":[{"name":"x","type":"uint256","internalType":"uint256"},{"name":"y","type":"uint256","internalType":"uint256"}]},{"name":"c2","type":"tuple","internalType":"struct Point","components":[{"name":"x","type":"uint256","internalType":"uint256"},{"name":"y","type":"uint256","internalType":"uint256"}]}]},{"name":"side","type":"uint8","internalType":"uint8"},{"name":"nullifier","type":"bytes32","internalType":"bytes32"}],"stateMutability":"view"},{"type":"function","name":"category","inputs":[],"outputs":[{"name":"","type":"string","internalType":"string"}],"stateMutability":"view"},{"type":"function","name":"committee","inputs":[{"name":"","type":"uint256","internalType":"uint256"}],"outputs":[{"name":"","type":"address","internalType":"address"}],"stateMutability":"view"},{"type":"function","name":"committeeSize","inputs":[],"outputs":[{"name":"","type":"uint256","internalType":"uint256"}],"stateMutability":"view"},{"type":"function","name":"decryptionShares","inputs":[{"name":"","type":"uint256","internalType":"uint256"},{"name":"","type":"uint256","internalType":"uint256"}],"outputs":[{"name":"committeeMember","type":"address","internalType":"address"},{"name":"shareX","type":"uint256","internalType":"uint256"},{"name":"shareY","type":"uint256","internalType":"uint256"},{"name":"timestamp","type":"uint256","internalType":"uint256"}],"stateMutability":"view"},{"type":"function","name":"disputeOutcome","inputs":[],"outputs":[],"stateMutability":"nonpayable"},{"type":"function","name":"emitAuditorDecryption","inputs":[{"name":"betIndex","type":"uint256","internalType":"uint256"}],"outputs":[],"stateMutability":"nonpayable"},{"type":"function","name":"finalize","inputs":[],"outputs":[],"stateMutability":"nonpayable"},{"type":"function","name":"getBet","inputs":[{"name":"index","type":"uint256","internalType":"uint256"}],"outputs":[{"name":"","type":"tuple","internalType":"struct VeilMarket.Bet","components":[{"name":"bettor","type":"address","internalType":"address"},{"name":"timestamp","type":"uint256","internalType":"uint256"},{"name":"encryptedAmount","type":"tuple","internalType":"struct EGCT","components":[{"name":"c1","type":"tuple","internalType":"struct Point","components":[{"name":"x","type":"uint256","internalType":"uint256"},{"name":"y","type":"uint256","internalType":"uint256"}]},{"name":"c2","type":"tuple","internalType":"struct Point","components":[{"name":"x","type":"uint256","internalType":"uint256"},{"name":"y","type":"uint256","internalType":"uint256"}]}]},{"name":"side","type":"uint8","internalType":"uint8"},{"name":"nullifier","type":"bytes32","internalType":"bytes32"}]}],"stateMutability":"view"},{"type":"function","name":"getPools","inputs":[],"outputs":[{"name":"yes","type":"tuple","internalType":"struct EGCT","components":[{"name":"c1","type":"tuple","internalType":"struct Point","components":[{"name":"x","type":"uint256","internalType":"uint256"},{"name":"y","type":"uint256","internalType":"uint256"}]},{"name":"c2","type":"tuple","internalType":"struct Point","components":[{"name":"x","type":"uint256","internalType":"uint256"},{"name":"y","type":"uint256","internalType":"uint256"}]}]},{"name":"no","type":"tuple","internalType":"struct EGCT","components":[{"name":"c1","type":"tuple","internalType":"struct Point","components":[{"name":"x","type":"uint256","internalType":"uint256"},{"name":"y","type":"uint256","internalType":"uint256"}]},{"name":"c2","type":"tuple","internalType":"struct Point","components":[{"name":"x","type":"uint256","internalType":"uint256"},{"name":"y","type":"uint256","internalType":"uint256"}]}]}],"stateMutability":"view"},{"type":"function","name":"getPublishedOdds","inputs":[],"outputs":[{"name":"yesTotal","type":"uint256","internalType":"uint256"},{"name":"noTotal","type":"uint256","internalType":"uint256"},{"name":"totalBets","type":"uint256","internalType":"uint256"}],"stateMutability":"view"},{"type":"function","name":"hasSubmittedShare","inputs":[{"name":"","type":"uint256","internalType":"uint256"},{"name":"","type":"address","internalType":"address"}],"outputs":[{"name":"","type":"bool","internalType":"bool"}],"stateMutability":"view"},{"type":"function","name":"isAcceptingBets","inputs":[],"outputs":[{"name":"","type":"bool","internalType":"bool"}],"stateMutability":"view"},{"type":"function","name":"isCommitteeMember","inputs":[{"name":"","type":"address","internalType":"address"}],"outputs":[{"name":"","type":"bool","internalType":"bool"}],"stateMutability":"view"},{"type":"function","name":"lastDecryptionRound","inputs":[],"outputs":[{"name":"","type":"uint256","internalType":"uint256"}],"stateMutability":"view"},{"type":"function","name":"marketId","inputs":[],"outputs":[{"name":"","type":"uint256","internalType":"uint256"}],"stateMutability":"view"},{"type":"function","name":"maxBet","inputs":[],"outputs":[{"name":"","type":"uint256","internalType":"uint256"}],"stateMutability":"view"},{"type":"function","name":"minBet","inputs":[],"outputs":[{"name":"","type":"uint256","internalType":"uint256"}],"stateMutability":"view"},{"type":"function","name":"noPool","inputs":[],"outputs":[{"name":"c1","type":"tuple","internalType":"struct Point","components":[{"name":"x","type":"uint256","internalType":"uint256"},{"name":"y","type":"uint256","internalType":"uint256"}]},{"name":"c2","type":"tuple","internalType":"struct Point","components":[{"name":"x","type":"uint256","internalType":"uint256"},{"name":"y","type":"uint256","internalType":"uint256"}]}],"stateMutability":"view"},{"type":"function","name":"nullifiers","inputs":[{"name":"","type":"bytes32","internalType":"bytes32"}],"outputs":[{"name":"","type":"bool","internalType":"bool"}],"stateMutability":"view"},{"type":"function","name":"outcome","inputs":[],"outputs":[{"name":"","type":"uint8","internalType":"enum VeilMarket.Outcome"}],"stateMutability":"view"},{"type":"function","name":"owner","inputs":[],"outputs":[{"name":"","type":"address","internalType":"address"}],"stateMutability":"view"},{"type":"function","name":"pause","inputs":[],"outputs":[],"stateMutability":"nonpayable"},{"type":"function","name":"paused","inputs":[],"outputs":[{"name":"","type":"bool","internalType":"bool"}],"stateMutability":"view"},{"type":"function","name":"placeBet","inputs":[{"name":"proofA","type":"uint256[2]","internalType":"uint256[2]"},{"name":"proofB","type":"uint256[2][2]","internalType":"uint256[2][2]"},{"name":"proofC","type":"uint256[2]","internalType":"uint256[2]"},{"name":"publicSignals","type":"uint256[5]","internalType":"uint256[5]"},{"name":"side","type":"uint8","internalType":"uint8"},{"name":"encryptedBet","type":"tuple","internalType":"struct EGCT","components":[{"name":"c1","type":"tuple","internalType":"struct Point","components":[{"name":"x","type":"uint256","internalType":"uint256"},{"name":"y","type":"uint256","internalType":"uint256"}]},{"name":"c2","type":"tuple","internalType":"struct Point","components":[{"name":"x","type":"uint256","internalType":"uint256"},{"name":"y","type":"uint256","internalType":"uint256"}]}]}],"outputs":[],"stateMutability":"payable"},{"type":"function","name":"postOutcome","inputs":[{"name":"_outcome","type":"uint8","internalType":"uint8"}],"outputs":[],"stateMutability":"nonpayable"},{"type":"function","name":"publishDecryptedTotals","inputs":[{"name":"yesTotal","type":"uint256","internalType":"uint256"},{"name":"noTotal","type":"uint256","internalType":"uint256"}],"outputs":[],"stateMutability":"nonpayable"},{"type":"function","name":"publishedTotals","inputs":[],"outputs":[{"name":"yesTotal","type":"uint256","internalType":"uint256"},{"name":"noTotal","type":"uint256","internalType":"uint256"},{"name":"totalBets","type":"uint256","internalType":"uint256"},{"name":"lastDecryptionRound","type":"uint256","internalType":"uint256"}],"stateMutability":"view"},{"type":"function","name":"question","inputs":[],"outputs":[{"name":"","type":"string","internalType":"string"}],"stateMutability":"view"},{"type":"function","name":"registry","inputs":[],"outputs":[{"name":"","type":"address","internalType":"contract IVeilRegistry"}],"stateMutability":"view"},{"type":"function","name":"renounceOwnership","inputs":[],"outputs":[],"stateMutability":"nonpayable"},{"type":"function","name":"resolutionTime","inputs":[],"outputs":[{"name":"","type":"uint256","internalType":"uint256"}],"stateMutability":"view"},{"type":"function","name":"resolutionTimestamp","inputs":[],"outputs":[{"name":"","type":"uint256","internalType":"uint256"}],"stateMutability":"view"},{"type":"function","name":"status","inputs":[],"outputs":[{"name":"","type":"uint8","internalType":"enum VeilMarket.MarketStatus"}],"stateMutability":"view"},{"type":"function","name":"submitDecryptionShare","inputs":[{"name":"round","type":"uint256","internalType":"uint256"},{"name":"shareX","type":"uint256","internalType":"uint256"},{"name":"shareY","type":"uint256","internalType":"uint256"}],"outputs":[],"stateMutability":"nonpayable"},{"type":"function","name":"transferOwnership","inputs":[{"name":"newOwner","type":"address","internalType":"address"}],"outputs":[],"stateMutability":"nonpayable"},{"type":"function","name":"unpause","inputs":[],"outputs":[],"stateMutability":"nonpayable"},{"type":"function","name":"yesPool","inputs":[],"outputs":[{"name":"c1","type":"tuple","internalType":"struct Point","components":[{"name":"x","type":"uint256","internalType":"uint256"},{"name":"y","type":"uint256","internalType":"uint256"}]},{"name":"c2","type":"tuple","internalType":"struct Point","components":[{"name":"x","type":"uint256","internalType":"uint256"},{"name":"y","type":"uint256","internalType":"uint256"}]}],"stateMutability":"view"},{"type":"event","name":"AuditorDecryption","inputs":[{"name":"marketId","type":"uint256","indexed":true,"internalType":"uint256"},{"name":"betIndex","type":"uint256","indexed":true,"internalType":"uint256"},{"name":"bettor","type":"address","indexed":true,"internalType":"address"},{"name":"nullifier","type":"bytes32","indexed":false,"internalType":"bytes32"}],"anonymous":false},{"type":"event","name":"BetPlaced","inputs":[{"name":"marketId","type":"uint256","indexed":true,"internalType":"uint256"},{"name":"bettor","type":"address","indexed":true,"internalType":"address"},{"name":"side","type":"uint8","indexed":false,"internalType":"uint8"},{"name":"nullifier","type":"bytes32","indexed":false,"internalType":"bytes32"},{"name":"encryptedAmount","type":"tuple","indexed":false,"internalType":"struct EGCT","components":[{"name":"c1","type":"tuple","internalType":"struct Point","components":[{"name":"x","type":"uint256","internalType":"uint256"},{"name":"y","type":"uint256","internalType":"uint256"}]},{"name":"c2","type":"tuple","internalType":"struct Point","components":[{"name":"x","type":"uint256","internalType":"uint256"},{"name":"y","type":"uint256","internalType":"uint256"}]}]}],"anonymous":false},{"type":"event","name":"DecryptionShareSubmitted","inputs":[{"name":"marketId","type":"uint256","indexed":true,"internalType":"uint256"},{"name":"committeeMember","type":"address","indexed":true,"internalType":"address"},{"name":"round","type":"uint256","indexed":false,"internalType":"uint256"}],"anonymous":false},{"type":"event","name":"MarketResolved","inputs":[{"name":"marketId","type":"uint256","indexed":true,"internalType":"uint256"},{"name":"outcome","type":"uint8","indexed":false,"internalType":"enum VeilMarket.Outcome"},{"name":"timestamp","type":"uint256","indexed":false,"internalType":"uint256"}],"anonymous":false},{"type":"event","name":"OwnershipTransferred","inputs":[{"name":"previousOwner","type":"address","indexed":true,"internalType":"address"},{"name":"newOwner","type":"address","indexed":true,"internalType":"address"}],"anonymous":false},{"type":"event","name":"Paused","inputs":[{"name":"account","type":"address","indexed":false,"internalType":"address"}],"anonymous":false},{"type":"event","name":"PoolDecrypted","inputs":[{"name":"marketId","type":"uint256","indexed":true,"internalType":"uint256"},{"name":"round","type":"uint256","indexed":false,"internalType":"uint256"},{"name":"yesTotal","type":"uint256","indexed":false,"internalType":"uint256"},{"name":"noTotal","type":"uint256","indexed":false,"internalType":"uint256"},{"name":"totalBets","type":"uint256","indexed":false,"internalType":"uint256"}],"anonymous":false},{"type":"event","name":"Unpaused","inputs":[{"name":"account","type":"address","indexed":false,"internalType":"address"}],"anonymous":false},{"type":"error","name":"EnforcedPause","inputs":[]},{"type":"error","name":"ExpectedPause","inputs":[]},{"type":"error","name":"OwnableInvalidOwner","inputs":[{"name":"owner","type":"address","internalType":"address"}]},{"type":"error","name":"OwnableUnauthorizedAccount","inputs":[{"name":"account","type":"address","internalType":"address"}]}],"bytecode":{"object":"0x610140604052348015610010575f5ffd5b50604051612a9a380380612a9a83398101604081905261002f91610377565b338061005457604051631e4fbdf760e01b81525f600482015260240160405180910390fd5b61005d816101ca565b506001600160a01b03808a16608052881660a05260c0879052600161008287826104d2565b50600261008f86826104d2565b5060e08490526101008390526101208290525f5b815181101561014c57600d8282815181106100c0576100c061058c565b6020908102919091018101518254600180820185555f9485529284200180546001600160a01b0319166001600160a01b0390921691909117905583519091600e918590859081106101135761011361058c565b6020908102919091018101516001600160a01b031682528101919091526040015f20805460ff19169115159190911790556001016100a3565b50506040805180820182525f815260016020808301918252835180850185528381528101839052825160038190558251600481905560059190915560065583518085019094528284529290920181905251600781905590516008819055600991909155600a5550506016805460ff19169055506105a0945050505050565b5f80546001600160a01b038381166001600160a01b0319831681178455604051919092169283917f8be0079c531659141344cd1fd0a4f28419497f9722a3daafe3b4186f6b6457e09190a35050565b6001600160a01b038116811461022d575f5ffd5b50565b805161023b81610219565b919050565b634e487b7160e01b5f52604160045260245ffd5b604051601f8201601f191681016001600160401b038111828210171561027c5761027c610240565b604052919050565b5f82601f830112610293575f5ffd5b81516001600160401b038111156102ac576102ac610240565b6102bf601f8201601f1916602001610254565b8181528460208386010111156102d3575f5ffd5b8160208501602083015e5f918101602001919091529392505050565b5f82601f8301126102fe575f5ffd5b81516001600160401b0381111561031757610317610240565b8060051b61032760208201610254565b91825260208185018101929081019086841115610342575f5ffd5b6020860192505b8383101561036d57825161035c81610219565b825260209283019290910190610349565b9695505050505050565b5f5f5f5f5f5f5f5f5f6101208a8c031215610390575f5ffd5b6103998a610230565b98506103a760208b01610230565b60408b015160608c015191995097506001600160401b038111156103c9575f5ffd5b6103d58c828d01610284565b60808c015190975090506001600160401b038111156103f2575f5ffd5b6103fe8c828d01610284565b60a08c015160c08d015160e08e01516101008f01519399509197509550935090506001600160401b03811115610432575f5ffd5b61043e8c828d016102ef565b9150509295985092959850929598565b600181811c9082168061046257607f821691505b60208210810361048057634e487b7160e01b5f52602260045260245ffd5b50919050565b601f8211156104cd57805f5260205f20601f840160051c810160208510156104ab5750805b601f840160051c820191505b818110156104ca575f81556001016104b7565b50505b505050565b81516001600160401b038111156104eb576104eb610240565b6104ff816104f9845461044e565b84610486565b6020601f821160018114610531575f831561051a5750848201515b5f19600385901b1c1916600184901b1784556104ca565b5f84815260208120601f198516915b828110156105605787850151825560209485019460019092019101610540565b508482101561057d57868401515f19600387901b60f8161c191681555b50505050600190811b01905550565b634e487b7160e01b5f52603260045260245ffd5b60805160a05160c05160e051610100516101205161245f61063b5f395f61043301525f61065601525f818161080c01528181610db2015281816119ab0152611a3f01525f818161053501528181610a8801528181610c4f015281816110b8015281816114a90152818161178f015281816119390152611dd601525f81816102c60152610fac01525f81816105cb0152610e86015261245f5ff3fe608060405260043610610233575f3560e01c806381232e9a11610129578063ce1b6186116100a8578063ef430aa61161006d578063ef430aa6146107a9578063efced1e4146107bd578063f2fde38b146107dc578063f3e41e90146107fb578063fba2edb51461082e575f5ffd5b8063ce1b61861461071f578063cf0944971461073e578063d85a1eec14610752578063e636d84b14610767578063ee99af0f14610795575f5ffd5b80639cf4364b116100ee5780639cf4364b14610678578063a3b5afb11461068c578063afe7fcf4146106cd578063b77641ad146106ec578063ca50311014610700575f5ffd5b806381232e9a146105ed5780638456cb591461060057806385af5d35146106145780638da5cb5b146106295780639619367d14610645575f5ffd5b80633ddfe6b1116101b5578063673a2a1f1161017a578063673a2a1f146105025780636ed71ede146105245780636f1d4ea414610557578063715018a6146105a65780637b103999146105ba575f5ffd5b80633ddfe6b1146104635780633f4ba83a1461049c5780633fad9ae0146104b05780634bb278f3146104d15780635c975abb146104e5575f5ffd5b80632689b85c116101fb5780632689b85c1461035657806327793f87146103775780632997e86b146103a25780632ce92a18146103e05780632e5b216814610422575f5ffd5b8063061e494f146102375780630db41a9c1461026c57806316faf66f146102b5578063200d2ed21461030057806322af00fa14610326575b5f5ffd5b348015610242575f5ffd5b50610256610251366004611ec3565b61085e565b6040516102639190611f06565b60405180910390f35b348015610277575f5ffd5b5061028b610286366004611f52565b610914565b604080516001600160a01b0390951685526020850193909352918301526060820152608001610263565b3480156102c0575f5ffd5b506102e87f000000000000000000000000000000000000000000000000000000000000000081565b6040516001600160a01b039091168152602001610263565b34801561030b575f5ffd5b506016546103199060ff1681565b6040516102639190611f86565b348015610331575f5ffd5b50610345610340366004611ec3565b610960565b604051610263959493929190611fa0565b348015610361575f5ffd5b50610375610370366004611f52565b6109e4565b005b348015610382575f5ffd5b5060165461039590610100900460ff1681565b6040516102639190611fef565b3480156103ad575f5ffd5b506103d06103bc366004611ec3565b600c6020525f908152604090205460ff1681565b6040519015158152602001610263565b3480156103eb575f5ffd5b506012546013546014546015546104029392919084565b604080519485526020850193909352918301526060820152608001610263565b34801561042d575f5ffd5b506104557f000000000000000000000000000000000000000000000000000000000000000081565b604051908152602001610263565b34801561046e575f5ffd5b506103d061047d36600461201e565b601060209081525f928352604080842090915290825290205460ff1681565b3480156104a7575f5ffd5b50610375610ad8565b3480156104bb575f5ffd5b506104c4610aea565b6040516102639190612048565b3480156104dc575f5ffd5b50610375610b76565b3480156104f0575f5ffd5b505f54600160a01b900460ff166103d0565b34801561050d575f5ffd5b50610516610cb0565b60405161026392919061207d565b34801561052f575f5ffd5b506104557f000000000000000000000000000000000000000000000000000000000000000081565b348015610562575f5ffd5b50604080518082018252600354815260045460208083019190915282518084019093526005548352600654908301526105989182565b6040516102639291906120a0565b3480156105b1575f5ffd5b50610375610d3e565b3480156105c5575f5ffd5b506102e87f000000000000000000000000000000000000000000000000000000000000000081565b6103756105fb3660046120e6565b610d4f565b34801561060b575f5ffd5b506103756114fc565b34801561061f575f5ffd5b5061045560175481565b348015610634575f5ffd5b505f546001600160a01b03166102e8565b348015610650575f5ffd5b506104557f000000000000000000000000000000000000000000000000000000000000000081565b348015610683575f5ffd5b50600d54610455565b348015610697575f5ffd5b50604080518082018252600754815260085460208083019190915282518084019093526009548352600a54908301526105989182565b3480156106d8575f5ffd5b506102e86106e7366004611ec3565b61150c565b3480156106f7575f5ffd5b50610375611534565b34801561070b575f5ffd5b5061037561071a366004612174565b611600565b34801561072a575f5ffd5b50610375610739366004611ec3565b611828565b348015610749575f5ffd5b50600b54610455565b34801561075d575f5ffd5b5061045560115481565b348015610772575f5ffd5b506103d061078136600461219d565b600e6020525f908152604090205460ff1681565b3480156107a0575f5ffd5b506103d0611988565b3480156107b4575f5ffd5b506104c46119d2565b3480156107c8575f5ffd5b506103756107d73660046121b6565b6119df565b3480156107e7575f5ffd5b506103756107f636600461219d565b611ba8565b348015610806575f5ffd5b506104557f000000000000000000000000000000000000000000000000000000000000000081565b348015610839575f5ffd5b5060125460135460145460408051938452602084019290925290820152606001610263565b610866611e51565b600b8281548110610879576108796121cf565b5f9182526020918290206040805160a081018252600890930290910180546001600160a01b031683526001810154838501528151608080820184526002830154828501908152600384015460608085019190915290835284518086018652600485015481526005850154818901529683019690965292840152600681015460ff16938301939093526007909201549181019190915292915050565b600f602052815f5260405f20818154811061092d575f80fd5b5f91825260209091206004909102018054600182015460028301546003909301546001600160a01b039092169450925084565b600b818154811061096f575f80fd5b5f918252602091829020600890910201805460018201546040805160808101825260028501548183019081526003860154606083015281528151808301909252600485015482526005850154828701529485015260068301546007909301546001600160a01b039092169450929160ff169085565b335f908152600e602052604090205460ff16610a1b5760405162461bcd60e51b8152600401610a12906121e3565b60405180910390fd5b5f6011546001610a2b9190612225565b60408051608080820183528682526020808301879052600b548385018190526060938401869052601289905560138890556014819055601586905560118690558451868152918201899052938101879052918201929092529192507f0000000000000000000000000000000000000000000000000000000000000000917f03811ecf0fadf29e37fd2a312b1dc967205919a634e2cabc99e2a755fcef95a3910160405180910390a2505050565b610ae0611be5565b610ae8611c11565b565b60018054610af790612238565b80601f0160208091040260200160405190810160405280929190818152602001828054610b2390612238565b8015610b6e5780601f10610b4557610100808354040283529160200191610b6e565b820191905f5260205f20905b815481529060010190602001808311610b5157829003601f168201915b505050505081565b600160165460ff166003811115610b8f57610b8f611f72565b14610bdc5760405162461bcd60e51b815260206004820152601f60248201527f4e6f7420696e207265736f6c7574696f6e2070656e64696e67207374617465006044820152606401610a12565b601754610bec9062015180612225565b421015610c3b5760405162461bcd60e51b815260206004820152601760248201527f446973707574652077696e646f77206e6f74206f7665720000000000000000006044820152606401610a12565b6016805460ff1916600217908190556040517f0000000000000000000000000000000000000000000000000000000000000000917f661ce16e44a34377fc37c19874f4b1bec6e84b072cf8d318838fe17c20c58e4491610ca69160ff61010090910416904290612270565b60405180910390a2565b610cb8611e82565b610cc0611e82565b5050604080516080808201835260035482840190815260045460608085019190915290835283518085018552600554815260065460208281019190915280850191909152845192830185526007548386019081526008549284019290925290825283518085019094526009548452600a548482015281019290925291565b610d46611be5565b610ae85f611c65565b610d57611cb4565b5f60165460ff166003811115610d6f57610d6f611f72565b14610db05760405162461bcd60e51b81526020600482015260116024820152704d61726b6574206e6f742061637469766560781b6044820152606401610a12565b7f00000000000000000000000000000000000000000000000000000000000000004210610e105760405162461bcd60e51b815260206004820152600e60248201526d13585c9ad95d08195e1c1a5c995960921b6044820152606401610a12565b8160ff1660011480610e2557508160ff166002145b610e715760405162461bcd60e51b815260206004820152601a60248201527f496e76616c696420736964652028313d5945532c20323d4e4f290000000000006044820152606401610a12565b604051630b1fba9160e11b81523360048201527f00000000000000000000000000000000000000000000000000000000000000006001600160a01b03169063163f752290602401602060405180830381865afa158015610ed3573d5f5f3e3d5ffd5b505050506040513d601f19601f82011682018060405250810190610ef7919061228b565b610f395760405162461bcd60e51b8152602060048201526013602482015272155cd95c881b9bdd081c9959da5cdd195c9959606a1b6044820152606401610a12565b60808301355f818152600c602052604090205460ff1615610f955760405162461bcd60e51b8152602060048201526016602482015275139d5b1b1a599a595c88185b1c9958591e481d5cd95960521b6044820152606401610a12565b6040516334baeab960e01b81526001600160a01b037f000000000000000000000000000000000000000000000000000000000000000016906334baeab990610fe7908a908a908a908a906004016122aa565b602060405180830381865afa158015611002573d5f5f3e3d5ffd5b505050506040513d601f19601f82011682018060405250810190611026919061228b565b6110665760405162461bcd60e51b815260206004820152601160248201527024b73b30b634b2103132ba10383937b7b360791b6044820152606401610a12565b6001600160a01b0384351633146110b15760405162461bcd60e51b815260206004820152600f60248201526e084cae8e8dee440dad2e6dac2e8c6d608b1b6044820152606401610a12565b60208401357f0000000000000000000000000000000000000000000000000000000000000000146111195760405162461bcd60e51b815260206004820152601260248201527109ac2e4d6cae840928840dad2e6dac2e8c6d60731b6044820152606401610a12565b5f818152600c6020908152604091829020805460ff19166001179055815160a0810183523381524291810191909152600b91810161115c3686900386018661235d565b815260ff868116602080840182905260409384018790528554600180820188555f97885296829020865160089092020180546001600160a01b0319166001600160a01b0390921691909117815585820151818801559385015180518051600287015582015160038601558101518051600486015501516005840155606084015160068401805460ff19169190931617909155608090920151600790910155900361133a5760408051808201825260035481526004805460208301529151637bb10bcb60e01b815273__$096a1b5e3ce8eaab1d6be3071b5269fbe0$__92637bb10bcb9261124d92909187910161239c565b6040805180830381865af4158015611267573d5f5f3e3d5ffd5b505050506040513d601f19601f8201168201806040525081019061128b91906123c2565b805160035560209081015160049081556040805180820182526005548152600654938101939093528051637bb10bcb60e01b815273__$096a1b5e3ce8eaab1d6be3071b5269fbe0$__93637bb10bcb936112eb939192918801910161239c565b6040805180830381865af4158015611305573d5f5f3e3d5ffd5b505050506040513d601f19601f8201168201806040525081019061132991906123c2565b80516005556020015160065561146e565b604080518082018252600754815260085460208201529051637bb10bcb60e01b815273__$096a1b5e3ce8eaab1d6be3071b5269fbe0$__91637bb10bcb916113879190869060040161239c565b6040805180830381865af41580156113a1573d5f5f3e3d5ffd5b505050506040513d601f19601f820116820180604052508101906113c591906123c2565b80516007556020908101516008556040805180820182526009548152600a54928101929092528051637bb10bcb60e01b815273__$096a1b5e3ce8eaab1d6be3071b5269fbe0$__92637bb10bcb92611423929087019060040161239c565b6040805180830381865af415801561143d573d5f5f3e3d5ffd5b505050506040513d601f19601f8201168201806040525081019061146191906123c2565b805160095560200151600a555b6040805160ff85168152602080820184905284358284015284013560608083019190915284830135608083015284013560a0820152905133917f0000000000000000000000000000000000000000000000000000000000000000917fe6255d576858a9943b7672823ba783f7343a9d654e1a80e96bebba875c1ebfb89181900360c00190a350505050505050565b611504611be5565b610ae8611cde565b600d818154811061151b575f80fd5b5f918252602090912001546001600160a01b0316905081565b600160165460ff16600381111561154d5761154d611f72565b1461159a5760405162461bcd60e51b815260206004820152601f60248201527f4e6f7420696e207265736f6c7574696f6e2070656e64696e67207374617465006044820152606401610a12565b6017546115aa9062015180612225565b42106115f05760405162461bcd60e51b8152602060048201526015602482015274111a5cdc1d5d19481dda5b991bddc818db1bdcd959605a1b6044820152606401610a12565b6016805461ffff19166003179055565b335f908152600e602052604090205460ff1661162e5760405162461bcd60e51b8152600401610a12906121e3565b601154831161167f5760405162461bcd60e51b815260206004820152601760248201527f526f756e6420616c7265616479206465637279707465640000000000000000006044820152606401610a12565b5f83815260106020908152604080832033845290915290205460ff16156116e85760405162461bcd60e51b815260206004820181905260248201527f416c7265616479207375626d697474656420666f72207468697320726f756e646044820152606401610a12565b5f838152601060209081526040808320338085529083528184208054600160ff199091168117909155878552600f84528285208351608081018552838152808601898152818601898152426060840190815284548087018655948a52988890209251600490940290920180546001600160a01b0319166001600160a01b039094169390931783555192820192909255905160028201559351600390940193909355518581527f0000000000000000000000000000000000000000000000000000000000000000917fa8d3ebb8b3d2b5ee74836edf9ca16e0ff9ff9f48a210087b05432e1352d365a4910160405180910390a3600d545f906003906117ed9060026123f3565b6117f7919061240a565b611802906001612225565b5f858152600f602052604090205490915081116118225761182284611d20565b50505050565b335f908152600e602052604090205460ff166118565760405162461bcd60e51b8152600401610a12906121e3565b600260165460ff16600381111561186f5761186f611f72565b146118b25760405162461bcd60e51b815260206004820152601360248201527213585c9ad95d081b9bdd081c995cdbdb1d9959606a1b6044820152606401610a12565b600b5481106118f75760405162461bcd60e51b8152602060048201526011602482015270092dcecc2d8d2c840c4cae840d2dcc8caf607b1b6044820152606401610a12565b5f600b828154811061190b5761190b6121cf565b5f918252602091829020600890910201805460078201546040519081529193506001600160a01b03169184917f0000000000000000000000000000000000000000000000000000000000000000917f915d1c7ef5500dffb9b75f3168e02ee6cb9174ba3f38110fdf80493a751e4b5f910160405180910390a45050565b5f8060165460ff1660038111156119a1576119a1611f72565b1480156119cd57507f000000000000000000000000000000000000000000000000000000000000000042105b905090565b60028054610af790612238565b335f908152600e602052604090205460ff16611a3d5760405162461bcd60e51b815260206004820152601f60248201527f4f6e6c7920636f6d6d69747465652063616e20706f7374206f7574636f6d65006044820152606401610a12565b7f0000000000000000000000000000000000000000000000000000000000000000421015611aa45760405162461bcd60e51b8152602060048201526014602482015273546f6f206561726c7920746f207265736f6c766560601b6044820152606401610a12565b5f60165460ff166003811115611abc57611abc611f72565b14611b095760405162461bcd60e51b815260206004820152601a60248201527f4d61726b6574206e6f7420696e206163746976652073746174650000000000006044820152606401610a12565b8060ff1660011480611b1e57508060ff166002145b611b5c5760405162461bcd60e51b815260206004820152600f60248201526e496e76616c6964206f7574636f6d6560881b6044820152606401610a12565b8060ff166002811115611b7157611b71611f72565b6016805461ff001916610100836002811115611b8f57611b8f611f72565b0217905550506016805460ff1916600117905542601755565b611bb0611be5565b6001600160a01b038116611bd957604051631e4fbdf760e01b81525f6004820152602401610a12565b611be281611c65565b50565b5f546001600160a01b03163314610ae85760405163118cdaa760e01b8152336004820152602401610a12565b611c19611e28565b5f805460ff60a01b191690557f5db9ee0a495bf2e6ff9c91a7834c1ba4fdd244a5e8aa4e537bd38aeae4b073aa335b6040516001600160a01b03909116815260200160405180910390a1565b5f80546001600160a01b038381166001600160a01b0319831681178455604051919092169283917f8be0079c531659141344cd1fd0a4f28419497f9722a3daafe3b4186f6b6457e09190a35050565b5f54600160a01b900460ff1615610ae85760405163d93c066560e01b815260040160405180910390fd5b611ce6611cb4565b5f805460ff60a01b1916600160a01b1790557f62e78cea01bee320cd4e420270b5ea74000d11b0c9f74754ebdbfc544b05a258611c483390565b5f818152600f60205260408120805490919082908290611d4257611d426121cf565b905f5260205f2090600402016001015490505f825f81548110611d6757611d676121cf565b5f9182526020918290206004919091020160020154600b54604080516080808201835287825281860185905281830184905260609182018a905260128890556013859055601484905560158a905560118a905582518a81529586018890529185018490528401829052919350917f0000000000000000000000000000000000000000000000000000000000000000917f03811ecf0fadf29e37fd2a312b1dc967205919a634e2cabc99e2a755fcef95a3910160405180910390a25050505050565b5f54600160a01b900460ff16610ae857604051638dfc202b60e01b815260040160405180910390fd5b6040805160a0810182525f8082526020820152908101611e6f611e82565b81525f6020820181905260409091015290565b604080516080810182525f91810182815260608201929092529081908152602001611ebe60405180604001604052805f81526020015f81525090565b905290565b5f60208284031215611ed3575f5ffd5b5035919050565b611eef82825180518252602090810151910152565b602090810151805160408401520151606090910152565b81516001600160a01b0316815260208083015190820152604080830151610100830191611f3590840182611eda565b50606083015160ff1660c083015260809092015160e09091015290565b5f5f60408385031215611f63575f5ffd5b50508035926020909101359150565b634e487b7160e01b5f52602160045260245ffd5b6020810160048310611f9a57611f9a611f72565b91905290565b6001600160a01b0386168152602081018590526101008101611fc56040830186611eda565b60ff9390931660c082015260e001529392505050565b60038110611feb57611feb611f72565b9052565b60208101611ffd8284611fdb565b92915050565b80356001600160a01b0381168114612019575f5ffd5b919050565b5f5f6040838503121561202f575f5ffd5b8235915061203f60208401612003565b90509250929050565b602081525f82518060208401528060208501604085015e5f604082850101526040601f19601f83011684010191505092915050565b610100810161208c8285611eda565b6120996080830184611eda565b9392505050565b825181526020808401518183015282516040830152820151606082015260808101612099565b8060408101831015611ffd575f5ffd5b803560ff81168114612019575f5ffd5b5f5f5f5f5f5f8688036102408112156120fd575f5ffd5b61210789896120c6565b965060c0880189811115612119575f5ffd5b6040890196506121298a826120c6565b9550506101a088018981111561213d575f5ffd5b6101008901945061214d816120d6565b93505060806101bf1982011215612162575f5ffd5b506101c0870190509295509295509295565b5f5f5f60608486031215612186575f5ffd5b505081359360208301359350604090920135919050565b5f602082840312156121ad575f5ffd5b61209982612003565b5f602082840312156121c6575f5ffd5b612099826120d6565b634e487b7160e01b5f52603260045260245ffd5b6020808252601490820152732737ba1031b7b6b6b4ba3a32b29036b2b6b132b960611b604082015260600190565b634e487b7160e01b5f52601160045260245ffd5b80820180821115611ffd57611ffd612211565b600181811c9082168061224c57607f821691505b60208210810361226a57634e487b7160e01b5f52602260045260245ffd5b50919050565b6040810161227e8285611fdb565b8260208301529392505050565b5f6020828403121561229b575f5ffd5b81518015158114612099575f5ffd5b6101a08101604086833760408201855f5b60028110156122dc57604082843760409283019291909101906001016122bb565b50505060408460c084013760a08361010084013795945050505050565b6040805190810167ffffffffffffffff8111828210171561232857634e487b7160e01b5f52604160045260245ffd5b60405290565b5f6040828403121561233e575f5ffd5b6123466122f9565b823581526020928301359281019290925250919050565b5f608082840312801561236e575f5ffd5b506123776122f9565b612381848461232e565b8152612390846040850161232e565b60208201529392505050565b825181526020808401518183015282356040830152820135606082015260808101612099565b5f60408284031280156123d3575f5ffd5b506123dc6122f9565b825181526020928301519281019290925250919050565b8082028115828204841417611ffd57611ffd612211565b5f8261242457634e487b7160e01b5f52601260045260245ffd5b50049056fea2646970667358221220866978111cf18afbc8a18d93b5d142ac3a030d44f869d3eb6c7b701c3332f3fa64736f6c634300081b0033","linkReferences":{"lib/EncryptedERC/contracts/libraries/BabyJubJub.sol":{"BabyJubJub":[{"start":6240,"length":20},{"start":6396,"length":20},{"start":6553,"length":20},{"start":6708,"length":20}]}}},"methodIdentifiers":{"betCount()":"cf094497","betVerifier()":"16faf66f","bets(uint256)":"22af00fa","category()":"ef430aa6","committee(uint256)":"afe7fcf4","committeeSize()":"9cf4364b","decryptionShares(uint256,uint256)":"0db41a9c","disputeOutcome()":"b77641ad","emitAuditorDecryption(uint256)":"ce1b6186","finalize()":"4bb278f3","getBet(uint256)":"061e494f","getPools()":"673a2a1f","getPublishedOdds()":"fba2edb5","hasSubmittedShare(uint256,address)":"3ddfe6b1","isAcceptingBets()":"ee99af0f","isCommitteeMember(address)":"e636d84b","lastDecryptionRound()":"d85a1eec","marketId()":"6ed71ede","maxBet()":"2e5b2168","minBet()":"9619367d","noPool()":"a3b5afb1","nullifiers(bytes32)":"2997e86b","outcome()":"27793f87","owner()":"8da5cb5b","pause()":"8456cb59","paused()":"5c975abb","placeBet(uint256[2],uint256[2][2],uint256[2],uint256[5],uint8,((uint256,uint256),(uint256,uint256)))":"81232e9a","postOutcome(uint8)":"efced1e4","publishDecryptedTotals(uint256,uint256)":"2689b85c","publishedTotals()":"2ce92a18","question()":"3fad9ae0","registry()":"7b103999","renounceOwnership()":"715018a6","resolutionTime()":"f3e41e90","resolutionTimestamp()":"85af5d35","status()":"200d2ed2","submitDecryptionShare(uint256,uint256,uint256)":"ca503110","transferOwnership(address)":"f2fde38b","unpause()":"3f4ba83a","yesPool()":"6f1d4ea4"},"id":24}