{"abi":[{"type":"constructor","inputs":[{"name":"_members","type":"address[]","internalType":"address[]"}],"stateMutability":"nonpayable"},{"type":"function","name":"currentRound","inputs":[],"outputs":[{"name":"","type":"uint256","internalType":"uint256"}],"stateMutability":"view"},{"type":"function","name":"getLatestTotals","inputs":[],"outputs":[{"name":"yesTotal","type":"uint256","internalType":"uint256"},{"name":"noTotal","type":"uint256","internalType":"uint256"},{"name":"totalBets","type":"uint256","internalType":"uint256"},{"name":"round","type":"uint256","internalType":"uint256"}],"stateMutability":"view"},{"type":"function","name":"getRound","inputs":[{"name":"round","type":"uint256","internalType":"uint256"}],"outputs":[{"name":"","type":"tuple","internalType":"struct ThresholdDecryption.DecryptionRound","components":[{"name":"round","type":"uint256","internalType":"uint256"},{"name":"timestamp","type":"uint256","internalType":"uint256"},{"name":"yesTotal","type":"uint256","internalType":"uint256"},{"name":"noTotal","type":"uint256","internalType":"uint256"},{"name":"totalBets","type":"uint256","internalType":"uint256"},{"name":"executed","type":"bool","internalType":"bool"}]}],"stateMutability":"view"},{"type":"function","name":"isMember","inputs":[{"name":"","type":"address","internalType":"address"}],"outputs":[{"name":"","type":"bool","internalType":"bool"}],"stateMutability":"view"},{"type":"function","name":"members","inputs":[{"name":"","type":"uint256","internalType":"uint256"}],"outputs":[{"name":"","type":"address","internalType":"address"}],"stateMutability":"view"},{"type":"function","name":"noPoolAccumulator","inputs":[],"outputs":[{"name":"c1","type":"tuple","internalType":"struct Point","components":[{"name":"x","type":"uint256","internalType":"uint256"},{"name":"y","type":"uint256","internalType":"uint256"}]},{"name":"c2","type":"tuple","internalType":"struct Point","components":[{"name":"x","type":"uint256","internalType":"uint256"},{"name":"y","type":"uint256","internalType":"uint256"}]}],"stateMutability":"view"},{"type":"function","name":"partialShares","inputs":[{"name":"","type":"uint256","internalType":"uint256"},{"name":"","type":"uint256","internalType":"uint256"}],"outputs":[{"name":"member","type":"address","internalType":"address"},{"name":"share","type":"tuple","internalType":"struct Point","components":[{"name":"x","type":"uint256","internalType":"uint256"},{"name":"y","type":"uint256","internalType":"uint256"}]},{"name":"timestamp","type":"uint256","internalType":"uint256"},{"name":"valid","type":"bool","internalType":"bool"}],"stateMutability":"view"},{"type":"function","name":"rounds","inputs":[{"name":"","type":"uint256","internalType":"uint256"}],"outputs":[{"name":"round","type":"uint256","internalType":"uint256"},{"name":"timestamp","type":"uint256","internalType":"uint256"},{"name":"yesTotal","type":"uint256","internalType":"uint256"},{"name":"noTotal","type":"uint256","internalType":"uint256"},{"name":"totalBets","type":"uint256","internalType":"uint256"},{"name":"executed","type":"bool","internalType":"bool"}],"stateMutability":"view"},{"type":"function","name":"setDecryptedTotals","inputs":[{"name":"yesTotal","type":"uint256","internalType":"uint256"},{"name":"noTotal","type":"uint256","internalType":"uint256"},{"name":"totalBets","type":"uint256","internalType":"uint256"}],"outputs":[],"stateMutability":"nonpayable"},{"type":"function","name":"submitShare","inputs":[{"name":"shareX","type":"uint256","internalType":"uint256"},{"name":"shareY","type":"uint256","internalType":"uint256"}],"outputs":[],"stateMutability":"nonpayable"},{"type":"function","name":"threshold","inputs":[],"outputs":[{"name":"","type":"uint256","internalType":"uint256"}],"stateMutability":"view"},{"type":"function","name":"yesPoolAccumulator","inputs":[],"outputs":[{"name":"c1","type":"tuple","internalType":"struct Point","components":[{"name":"x","type":"uint256","internalType":"uint256"},{"name":"y","type":"uint256","internalType":"uint256"}]},{"name":"c2","type":"tuple","internalType":"struct Point","components":[{"name":"x","type":"uint256","internalType":"uint256"},{"name":"y","type":"uint256","internalType":"uint256"}]}],"stateMutability":"view"},{"type":"event","name":"PoolDecrypted","inputs":[{"name":"round","type":"uint256","indexed":true,"internalType":"uint256"},{"name":"yesTotal","type":"uint256","indexed":false,"internalType":"uint256"},{"name":"noTotal","type":"uint256","indexed":false,"internalType":"uint256"},{"name":"totalBets","type":"uint256","indexed":false,"internalType":"uint256"}],"anonymous":false},{"type":"event","name":"ShareSubmitted","inputs":[{"name":"round","type":"uint256","indexed":true,"internalType":"uint256"},{"name":"member","type":"address","indexed":true,"internalType":"address"},{"name":"share","type":"tuple","indexed":false,"internalType":"struct Point","components":[{"name":"x","type":"uint256","internalType":"uint256"},{"name":"y","type":"uint256","internalType":"uint256"}]}],"anonymous":false}],"bytecode":{"object":"0x608060405234801561000f575f5ffd5b50604051610cb9380380610cb983398101604081905261002e91610182565b6002815110156100845760405162461bcd60e51b815260206004820152601760248201527f4e656564206174206c656173742032206d656d62657273000000000000000000604482015260640160405180910390fd5b5f5b815181101561012f5760088282815181106100a3576100a361024c565b6020908102919091018101518254600180820185555f9485529284200180546001600160a01b0319166001600160a01b03909216919091179055835190916009918590859081106100f6576100f661024c565b6020908102919091018101516001600160a01b031682528101919091526040015f20805460ff1916911515919091179055600101610086565b506002815160026101409190610260565b61014a9190610285565b600d55506102a4565b634e487b7160e01b5f52604160045260245ffd5b80516001600160a01b038116811461017d575f5ffd5b919050565b5f60208284031215610192575f5ffd5b81516001600160401b038111156101a7575f5ffd5b8201601f810184136101b7575f5ffd5b80516001600160401b038111156101d0576101d0610153565b604051600582901b90603f8201601f191681016001600160401b03811182821017156101fe576101fe610153565b60405291825260208184018101929081018784111561021b575f5ffd5b6020850194505b838510156102415761023385610167565b815260209485019401610222565b509695505050505050565b634e487b7160e01b5f52603260045260245ffd5b8082018082111561027f57634e487b7160e01b5f52601160045260245ffd5b92915050565b5f8261029f57634e487b7160e01b5f52601260045260245ffd5b500490565b610a08806102b15f395ff3fe608060405234801561000f575f5ffd5b50600436106100b1575f3560e01c80638a19c8bc1161006e5780638a19c8bc1461019f5780638c65c81f146101a85780638f1327c01461021c578063a230c5241461027c578063b76f9f0e146102ae578063be62fbac146102d6575f5ffd5b806308270671146100b55780632d601d5514610101578063339d0ffe1461011657806342cde4e81461014a5780635daf08ca146101615780636d638b121461018c575b5f5ffd5b604080518082018252600454815260055460208083019190915282518084019093526006548352600754908301526100ea9182565b6040516100f8929190610862565b60405180910390f35b61011461010f36600461088b565b6102f9565b005b6040805180820182525f54815260015460208083019190915282518084019093526002548352600354908301526100ea9182565b610153600d5481565b6040519081526020016100f8565b61017461016f3660046108b4565b610400565b6040516001600160a01b0390911681526020016100f8565b61011461019a3660046108cb565b610428565b610153600c5481565b6101ed6101b63660046108b4565b600a6020525f9081526040902080546001820154600283015460038401546004850154600590950154939492939192909160ff1686565b6040805196875260208701959095529385019290925260608401526080830152151560a082015260c0016100f8565b61022f61022a3660046108b4565b610695565b6040516100f891905f60c082019050825182526020830151602083015260408301516040830152606083015160608301526080830151608083015260a0830151151560a083015292915050565b61029e61028a3660046108eb565b60096020525f908152604090205460ff1681565b60405190151581526020016100f8565b6102b6610727565b6040805194855260208501939093529183015260608201526080016100f8565b6102e96102e43660046108cb565b610776565b6040516100f89493929190610911565b335f9081526009602052604090205460ff166103555760405162461bcd60e51b81526020600482015260166024820152752737ba10309031b7b6b6b4ba3a32b29036b2b6b132b960511b60448201526064015b60405180910390fd5b600c80545f818152600a602052604081209182554260018084019190915560028301879055600383018690556004830185905560058301805460ff1916909117905582549192906103a583610963565b91905055506001600c546103b9919061097b565b60408051868152602081018690529081018490527f64364c2c1fe981d275da124ce8b26ec923dcd28e6590e67b20f4a47155af928a9060600160405180910390a250505050565b6008818154811061040f575f80fd5b5f918252602090912001546001600160a01b0316905081565b335f9081526009602052604090205460ff1661047f5760405162461bcd60e51b81526020600482015260166024820152752737ba10309031b7b6b6b4ba3a32b29036b2b6b132b960511b604482015260640161034c565b600c545f908152600a602052604090206005015460ff16156104dc5760405162461bcd60e51b8152602060048201526016602482015275149bdd5b9908185b1c9958591e48195e1958dd5d195960521b604482015260640161034c565b600c545f908152600b60205260408120905b815481101561057557336001600160a01b031682828154811061051357610513610994565b5f9182526020909120600590910201546001600160a01b03160361056d5760405162461bcd60e51b8152602060048201526011602482015270105b1c9958591e481cdd589b5a5d1d1959607a1b604482015260640161034c565b6001016104ee565b50600c80545f908152600b60209081526040808320815160808101835233808252835180850185528a81528086018a90528286019081524283860190815260016060850181815286548083018855968a52988890209451600590960290940180546001600160a01b0319166001600160a01b0390961695909517855590518051938501939093559185015160028401559051600383015593516004909101805460ff191691151591909117905592548351808501855287815291820186905292519192917f96a1b6f3a9efff0687d4e0b5ceb78a792e57bc6857e0f6a398592001ef6ce3a191610664916109a8565b60405180910390a3600d54600c545f908152600b60205260409020541061069057610690600c546107e0565b505050565b6106ca6040518060c001604052805f81526020015f81526020015f81526020015f81526020015f81526020015f151581525090565b505f908152600a6020908152604091829020825160c08101845281548152600182015492810192909252600281015492820192909252600382015460608201526004820154608082015260059091015460ff16151560a082015290565b5f5f5f5f5f5f600c541161073b575f61074a565b6001600c5461074a919061097b565b5f818152600a602052604090206002810154600382015460049092015490989197509550909350915050565b600b602052815f5260405f20818154811061078f575f80fd5b5f9182526020918290206005909102018054604080518082019091526001830154815260028301549381019390935260038201546004909201546001600160a01b0390911694509192509060ff1684565b5f818152600a6020526040902060058101805460ff1916600190811790915561080a9083906109bf565b600c556002810154600382015460048301546040805193845260208401929092529082015282907f64364c2c1fe981d275da124ce8b26ec923dcd28e6590e67b20f4a47155af928a9060600160405180910390a25050565b8251815260208084015181830152825160408301528201516060820152608081015b9392505050565b5f5f5f6060848603121561089d575f5ffd5b505081359360208301359350604090920135919050565b5f602082840312156108c4575f5ffd5b5035919050565b5f5f604083850312156108dc575f5ffd5b50508035926020909101359150565b5f602082840312156108fb575f5ffd5b81356001600160a01b0381168114610884575f5ffd5b6001600160a01b038516815260a08101610938602083018680518252602090810151910152565b836060830152821515608083015295945050505050565b634e487b7160e01b5f52601160045260245ffd5b5f600182016109745761097461094f565b5060010190565b8181038181111561098e5761098e61094f565b92915050565b634e487b7160e01b5f52603260045260245ffd5b81518152602080830151908201526040810161098e565b8082018082111561098e5761098e61094f56fea26469706673582212203125006af40cbeeaaeb596676803cd20047d2556d61ed44069720060e560d4eb64736f6c634300081b0033","linkReferences":{}},"methodIdentifiers":{"currentRound()":"8a19c8bc","getLatestTotals()":"b76f9f0e","getRound(uint256)":"8f1327c0","isMember(address)":"a230c524","members(uint256)":"5daf08ca","noPoolAccumulator()":"08270671","partialShares(uint256,uint256)":"be62fbac","rounds(uint256)":"8c65c81f","setDecryptedTotals(uint256,uint256,uint256)":"2d601d55","submitShare(uint256,uint256)":"6d638b12","threshold()":"42cde4e8","yesPoolAccumulator()":"339d0ffe"},"id":24}