{"abi":[{"type":"function","name":"Q","inputs":[],"outputs":[{"name":"","type":"uint256","internalType":"uint256"}],"stateMutability":"view"},{"type":"function","name":"_add","inputs":[{"name":"_point1","type":"tuple","internalType":"struct Point","components":[{"name":"x","type":"uint256","internalType":"uint256"},{"name":"y","type":"uint256","internalType":"uint256"}]},{"name":"_point2","type":"tuple","internalType":"struct Point","components":[{"name":"x","type":"uint256","internalType":"uint256"},{"name":"y","type":"uint256","internalType":"uint256"}]}],"outputs":[{"name":"","type":"tuple","internalType":"struct Point","components":[{"name":"x","type":"uint256","internalType":"uint256"},{"name":"y","type":"uint256","internalType":"uint256"}]}],"stateMutability":"view"},{"type":"function","name":"_sub","inputs":[{"name":"_point1","type":"tuple","internalType":"struct Point","components":[{"name":"x","type":"uint256","internalType":"uint256"},{"name":"y","type":"uint256","internalType":"uint256"}]},{"name":"_point2","type":"tuple","internalType":"struct Point","components":[{"name":"x","type":"uint256","internalType":"uint256"},{"name":"y","type":"uint256","internalType":"uint256"}]}],"outputs":[{"name":"","type":"tuple","internalType":"struct Point","components":[{"name":"x","type":"uint256","internalType":"uint256"},{"name":"y","type":"uint256","internalType":"uint256"}]}],"stateMutability":"view"},{"type":"function","name":"base8","inputs":[],"outputs":[{"name":"","type":"tuple","internalType":"struct Point","components":[{"name":"x","type":"uint256","internalType":"uint256"},{"name":"y","type":"uint256","internalType":"uint256"}]}],"stateMutability":"pure"},{"type":"function","name":"elGamalEncryption","inputs":[{"name":"_publicKey","type":"tuple","internalType":"struct Point","components":[{"name":"x","type":"uint256","internalType":"uint256"},{"name":"y","type":"uint256","internalType":"uint256"}]},{"name":"_msg","type":"uint256","internalType":"uint256"}],"outputs":[{"name":"","type":"tuple","internalType":"struct EGCT","components":[{"name":"c1","type":"tuple","internalType":"struct Point","components":[{"name":"x","type":"uint256","internalType":"uint256"},{"name":"y","type":"uint256","internalType":"uint256"}]},{"name":"c2","type":"tuple","internalType":"struct Point","components":[{"name":"x","type":"uint256","internalType":"uint256"},{"name":"y","type":"uint256","internalType":"uint256"}]}]}],"stateMutability":"view"},{"type":"function","name":"encrypt","inputs":[{"name":"_publicKey","type":"tuple","internalType":"struct Point","components":[{"name":"x","type":"uint256","internalType":"uint256"},{"name":"y","type":"uint256","internalType":"uint256"}]},{"name":"_msg","type":"uint256","internalType":"uint256"}],"outputs":[{"name":"","type":"tuple","internalType":"struct EGCT","components":[{"name":"c1","type":"tuple","internalType":"struct Point","components":[{"name":"x","type":"uint256","internalType":"uint256"},{"name":"y","type":"uint256","internalType":"uint256"}]},{"name":"c2","type":"tuple","internalType":"struct Point","components":[{"name":"x","type":"uint256","internalType":"uint256"},{"name":"y","type":"uint256","internalType":"uint256"}]}]}],"stateMutability":"view"},{"type":"function","name":"scalarMultiply","inputs":[{"name":"_point","type":"tuple","internalType":"struct Point","components":[{"name":"x","type":"uint256","internalType":"uint256"},{"name":"y","type":"uint256","internalType":"uint256"}]},{"name":"_scalar","type":"uint256","internalType":"uint256"}],"outputs":[{"name":"","type":"tuple","internalType":"struct Point","components":[{"name":"x","type":"uint256","internalType":"uint256"},{"name":"y","type":"uint256","internalType":"uint256"}]}],"stateMutability":"view"}],"bytecode":{"object":"0x6106e9610034600b8282823980515f1a607314602857634e487b7160e01b5f525f60045260245ffd5b305f52607381538281f3fe7300000000000000000000000000000000000000003014608060405260043610610085575f3560e01c80637a634a72116100635780637a634a721461010a5780637bb10bcb14610112578063e493ef8c14610125578063ef69ca3a14610147575f5ffd5b806304068d3a1461008957806334603b1a146100d75780634fa78ada146100ea575b5f5ffd5b61009c6100973660046105ce565b61015a565b6040516100ce919081518051825260209081015181830152918201518051604083015290910151606082015260800190565b60405180910390f35b61009c6100e53660046105ce565b610175565b6100fd6100f83660046105f7565b6101db565b6040516100ce919061062a565b6100fd6101fb565b6100fd6101203660046105f7565b610261565b6101395f5160206106945f395f51905f5281565b6040519081526020016100ce565b6100fd6101553660046105ce565b610389565b610162610534565b61016c8383610175565b90505b92915050565b61017d610534565b60015f6101886101fb565b90505f6101958284610389565b90505f6101a28785610389565b90505f6101af8488610389565b90505f6101bc8383610261565b6040805180820190915294855260208501525091979650505050505050565b604080518082019091525f808252602082015261016c836101208461041d565b6040805180820182525f80825260209182015281518083019092527f0bb77a6ad63e739b4eacb2e09d6277c12ab8d8010534e0b62893f3f6bb95705182527f25797203f7a0b24925572e1cd16bf9edfce0051fb9e133774b3c257a872d7d8b9082015290565b604080518082019091525f80825260208201525f5f5160206106945f395f51905f52835185510990505f5f5160206106945f395f51905f52846020015186602001510990505f5f5160206106945f395f51905f5280838509620292f80990505f5f5160206106945f395f51905f5280875160208a0151095f5160206106945f395f51905f5260208901518a51090890505f61030f845f5160206106945f395f51905f5287620292fc09610469565b905060405180604001604052805f5160206106945f395f51905f528061033757610337610641565b6103515f5160206106945f395f51905f5287600108610498565b850981526020015f5160206106945f395f51905f52610379610374600188610469565b610498565b8409905298975050505050505050565b604080518082019091525f80825260208201525f6103c77f060c89ce5c263405370a08b6d0302b0bab3eedb83920ee0a677297dc392126f184610655565b604080518082019091525f81526001602082015290915084905b82156104145760018316156103fd576103fa8183610261565b90505b610406826104c3565b9150600183901c92506103e1565b95945050505050565b604080518082019091525f80825260208201526040518060400160405280835f01515f5160206106945f395f51905f526104579190610674565b81526020938401519301929092525090565b5f5f5160206106945f395f51905f5261048f835f5160206106945f395f51905f52610674565b84089392505050565b5f61016f827f30644e72e131a029b85045b68181585d2833e84879b9709143e1f593efffffff6104e0565b604080518082019091525f808252602082015261016f8283610261565b5f5f5f5160206106945f395f51905f5260405160208152602080820152602060408201528560608201528460808201528160a082015260208160c08360055afa915081801561008557505195945050505050565b604080516080810182525f9181018281526060820192909252908190815260200161057060405180604001604052805f81526020015f81525090565b905290565b5f60408284031215610585575f5ffd5b6040516040810181811067ffffffffffffffff821117156105b457634e487b7160e01b5f52604160045260245ffd5b604052823581526020928301359281019290925250919050565b5f5f606083850312156105df575f5ffd5b6105e98484610575565b946040939093013593505050565b5f5f60808385031215610608575f5ffd5b6106128484610575565b91506106218460408501610575565b90509250929050565b81518152602080830151908201526040810161016f565b634e487b7160e01b5f52601260045260245ffd5b5f8261066f57634e487b7160e01b5f52601260045260245ffd5b500690565b8181038181111561016f57634e487b7160e01b5f52601160045260245ffdfe30644e72e131a029b85045b68181585d2833e84879b9709143e1f593f0000001a26469706673582212209fdf0bf86d62a4ae26713f49785325a081607ad3011c3280826bc02b81bf075464736f6c634300081b0033","linkReferences":{}},"methodIdentifiers":{"Q()":"e493ef8c","_add(Point,Point)":"7bb10bcb","_sub(Point,Point)":"4fa78ada","base8()":"7a634a72","elGamalEncryption(Point,uint256)":"34603b1a","encrypt(Point,uint256)":"04068d3a","scalarMultiply(Point,uint256)":"ef69ca3a"},"id":0}